{"abi":[{"type":"constructor","inputs":[{"name":"name_","type":"string","internalType":"string"},{"name":"symbol_","type":"string","internalType":"string"},{"name":"initialOwner","type":"address","internalType":"address"}],"stateMutability":"nonpayable"},{"type":"function","name":"allowance","inputs":[{"name":"owner","type":"address","internalType":"address"},{"name":"spender","type":"address","internalType":"address"}],"outputs":[{"name":"","type":"uint256","internalType":"uint256"}],"stateMutability":"view"},{"type":"function","name":"approve","inputs":[{"name":"spender","type":"address","internalType":"address"},{"name":"amount","type":"uint256","internalType":"uint256"}],"outputs":[{"name":"","type":"bool","internalType":"bool"}],"stateMutability":"nonpayable"},{"type":"function","name":"balanceOf","inputs":[{"name":"account","type":"address","internalType":"address"}],"outputs":[{"name":"","type":"uint256","internalType":"uint256"}],"stateMutability":"view"},{"type":"function","name":"burn","inputs":[{"name":"amount","type":"uint256","internalType":"uint256"}],"outputs":[],"stateMutability":"nonpayable"},{"type":"function","name":"decimals","inputs":[],"outputs":[{"name":"","type":"uint8","internalType":"uint8"}],"stateMutability":"view"},{"type":"function","name":"decreaseAllowance","inputs":[{"name":"spender","type":"address","internalType":"address"},{"name":"subtractedValue","type":"uint256","internalType":"uint256"}],"outputs":[{"name":"","type":"bool","internalType":"bool"}],"stateMutability":"nonpayable"},{"type":"function","name":"increaseAllowance","inputs":[{"name":"spender","type":"address","internalType":"address"},{"name":"addedValue","type":"uint256","internalType":"uint256"}],"outputs":[{"name":"","type":"bool","internalType":"bool"}],"stateMutability":"nonpayable"},{"type":"function","name":"mint","inputs":[{"name":"to","type":"address","internalType":"address"},{"name":"amount","type":"uint256","internalType":"uint256"}],"outputs":[],"stateMutability":"nonpayable"},{"type":"function","name":"name","inputs":[],"outputs":[{"name":"","type":"string","internalType":"string"}],"stateMutability":"view"},{"type":"function","name":"owner","inputs":[],"outputs":[{"name":"","type":"address","internalType":"address"}],"stateMutability":"view"},{"type":"function","name":"recoverERC20","inputs":[{"name":"token","type":"address","internalType":"address"},{"name":"to","type":"address","internalType":"address"},{"name":"amount","type":"uint256","internalType":"uint256"}],"outputs":[],"stateMutability":"nonpayable"},{"type":"function","name":"renounceOwnership","inputs":[],"outputs":[],"stateMutability":"nonpayable"},{"type":"function","name":"symbol","inputs":[],"outputs":[{"name":"","type":"string","internalType":"string"}],"stateMutability":"view"},{"type":"function","name":"totalSupply","inputs":[],"outputs":[{"name":"","type":"uint256","internalType":"uint256"}],"stateMutability":"view"},{"type":"function","name":"transfer","inputs":[{"name":"to","type":"address","internalType":"address"},{"name":"amount","type":"uint256","internalType":"uint256"}],"outputs":[{"name":"","type":"bool","internalType":"bool"}],"stateMutability":"nonpayable"},{"type":"function","name":"transferFrom","inputs":[{"name":"from","type":"address","internalType":"address"},{"name":"to","type":"address","internalType":"address"},{"name":"amount","type":"uint256","internalType":"uint256"}],"outputs":[{"name":"","type":"bool","internalType":"bool"}],"stateMutability":"nonpayable"},{"type":"function","name":"transferOwnership","inputs":[{"name":"newOwner","type":"address","internalType":"address"}],"outputs":[],"stateMutability":"nonpayable"},{"type":"event","name":"Approval","inputs":[{"name":"owner","type":"address","indexed":true,"internalType":"address"},{"name":"spender","type":"address","indexed":true,"internalType":"address"},{"name":"value","type":"uint256","indexed":false,"internalType":"uint256"}],"anonymous":false},{"type":"event","name":"Burn","inputs":[{"name":"from","type":"address","indexed":true,"internalType":"address"},{"name":"amount","type":"uint256","indexed":false,"internalType":"uint256"}],"anonymous":false},{"type":"event","name":"OwnershipTransferred","inputs":[{"name":"previousOwner","type":"address","indexed":true,"internalType":"address"},{"name":"newOwner","type":"address","indexed":true,"internalType":"address"}],"anonymous":false},{"type":"event","name":"Transfer","inputs":[{"name":"from","type":"address","indexed":true,"internalType":"address"},{"name":"to","type":"address","indexed":true,"internalType":"address"},{"name":"value","type":"uint256","indexed":false,"internalType":"uint256"}],"anonymous":false}],"bytecode":{"object":"0x608060405234801561000f575f5ffd5b5060405161275238038061275283398181016040528101906100319190610367565b8282816003908161004291906105ff565b50806004908161005291906105ff565b5050506100716100666100f660201b60201c565b6100fd60201b60201c565b5f73ffffffffffffffffffffffffffffffffffffffff168173ffffffffffffffffffffffffffffffffffffffff16036100df576040517f08c379a00000000000000000000000000000000000000000000000000000000081526004016100d690610728565b60405180910390fd5b6100ee816100fd60201b60201c565b505050610746565b5f33905090565b5f60055f9054906101000a900473ffffffffffffffffffffffffffffffffffffffff1690508160055f6101000a81548173ffffffffffffffffffffffffffffffffffffffff021916908373ffffffffffffffffffffffffffffffffffffffff1602179055508173ffffffffffffffffffffffffffffffffffffffff168173ffffffffffffffffffffffffffffffffffffffff167f8be0079c531659141344cd1fd0a4f28419497f9722a3daafe3b4186f6b6457e060405160405180910390a35050565b5f604051905090565b5f5ffd5b5f5ffd5b5f5ffd5b5f5ffd5b5f601f19601f8301169050919050565b7f4e487b71000000000000000000000000000000000000000000000000000000005f52604160045260245ffd5b61021f826101d9565b810181811067ffffffffffffffff8211171561023e5761023d6101e9565b5b80604052505050565b5f6102506101c0565b905061025c8282610216565b919050565b5f67ffffffffffffffff82111561027b5761027a6101e9565b5b610284826101d9565b9050602081019050919050565b8281835e5f83830152505050565b5f6102b16102ac84610261565b610247565b9050828152602081018484840111156102cd576102cc6101d5565b5b6102d8848285610291565b509392505050565b5f82601f8301126102f4576102f36101d1565b5b815161030484826020860161029f565b91505092915050565b5f73ffffffffffffffffffffffffffffffffffffffff82169050919050565b5f6103368261030d565b9050919050565b6103468161032c565b8114610350575f5ffd5b50565b5f815190506103618161033d565b92915050565b5f5f5f6060848603121561037e5761037d6101c9565b5b5f84015167ffffffffffffffff81111561039b5761039a6101cd565b5b6103a7868287016102e0565b935050602084015167ffffffffffffffff8111156103c8576103c76101cd565b5b6103d4868287016102e0565b92505060406103e586828701610353565b9150509250925092565b5f81519050919050565b7f4e487b71000000000000000000000000000000000000000000000000000000005f52602260045260245ffd5b5f600282049050600182168061043d57607f821691505b6020821081036104505761044f6103f9565b5b50919050565b5f819050815f5260205f209050919050565b5f6020601f8301049050919050565b5f82821b905092915050565b5f600883026104b27fffffffffffffffffffffffffffffffffffffffffffffffffffffffffffffffff82610477565b6104bc8683610477565b95508019841693508086168417925050509392505050565b5f819050919050565b5f819050919050565b5f6105006104fb6104f6846104d4565b6104dd565b6104d4565b9050919050565b5f819050919050565b610519836104e6565b61052d61052582610507565b848454610483565b825550505050565b5f5f905090565b610544610535565b61054f818484610510565b505050565b5b81811015610572576105675f8261053c565b600181019050610555565b5050565b601f8211156105b75761058881610456565b61059184610468565b810160208510156105a0578190505b6105b46105ac85610468565b830182610554565b50505b505050565b5f82821c905092915050565b5f6105d75f19846008026105bc565b1980831691505092915050565b5f6105ef83836105c8565b9150826002028217905092915050565b610608826103ef565b67ffffffffffffffff811115610621576106206101e9565b5b61062b8254610426565b610636828285610576565b5f60209050601f831160018114610667575f8415610655578287015190505b61065f85826105e4565b8655506106c6565b601f19841661067586610456565b5f5b8281101561069c57848901518255600182019150602085019450602081019050610677565b868310156106b957848901516106b5601f8916826105c8565b8355505b6001600288020188555050505b505050505050565b5f82825260208201905092915050565b7f517565737458503a20696e697469616c206f776e6572207a65726f00000000005f82015250565b5f610712601b836106ce565b915061071d826106de565b602082019050919050565b5f6020820190508181035f83015261073f81610706565b9050919050565b611fff806107535f395ff3fe608060405234801561000f575f5ffd5b5060043610610109575f3560e01c806342966c68116100a057806395d89b411161006f57806395d89b41146102a3578063a457c2d7146102c1578063a9059cbb146102f1578063dd62ed3e14610321578063f2fde38b1461035157610109565b806342966c681461022f57806370a082311461024b578063715018a61461027b5780638da5cb5b1461028557610109565b806323b872dd116100dc57806323b872dd14610195578063313ce567146101c557806339509351146101e357806340c10f191461021357610109565b806306fdde031461010d578063095ea7b31461012b5780631171bda91461015b57806318160ddd14610177575b5f5ffd5b61011561036d565b60405161012291906113a2565b60405180910390f35b61014560048036038101906101409190611453565b6103fd565b60405161015291906114ab565b60405180910390f35b610175600480360381019061017091906114c4565b61041f565b005b61017f610584565b60405161018c9190611523565b60405180910390f35b6101af60048036038101906101aa91906114c4565b61058d565b6040516101bc91906114ab565b60405180910390f35b6101cd6105bb565b6040516101da9190611557565b60405180910390f35b6101fd60048036038101906101f89190611453565b6105c3565b60405161020a91906114ab565b60405180910390f35b61022d60048036038101906102289190611453565b6105f9565b005b61024960048036038101906102449190611570565b6106bf565b005b6102656004803603810190610260919061159b565b61076a565b6040516102729190611523565b60405180910390f35b6102836107af565b005b61028d6107c2565b60405161029a91906115d5565b60405180910390f35b6102ab6107ea565b6040516102b891906113a2565b60405180910390f35b6102db60048036038101906102d69190611453565b61087a565b6040516102e891906114ab565b60405180910390f35b61030b60048036038101906103069190611453565b6108ef565b60405161031891906114ab565b60405180910390f35b61033b600480360381019061033691906115ee565b610911565b6040516103489190611523565b60405180910390f35b61036b6004803603810190610366919061159b565b610993565b005b60606003805461037c90611659565b80601f01602080910402602001604051908101604052809291908181526020018280546103a890611659565b80156103f35780601f106103ca576101008083540402835291602001916103f3565b820191905f5260205f20905b8154815290600101906020018083116103d657829003601f168201915b5050505050905090565b5f5f610407610a15565b9050610414818585610a1c565b600191505092915050565b610427610bdf565b5f73ffffffffffffffffffffffffffffffffffffffff168273ffffffffffffffffffffffffffffffffffffffff1603610495576040517f08c379a000000000000000000000000000000000000000000000000000000000815260040161048c906116d3565b60405180910390fd5b3073ffffffffffffffffffffffffffffffffffffffff168373ffffffffffffffffffffffffffffffffffffffff1603610503576040517f08c379a00000000000000000000000000000000000000000000000000000000081526004016104fa90611761565b60405180910390fd5b8273ffffffffffffffffffffffffffffffffffffffff1663a9059cbb83836040518363ffffffff1660e01b815260040161053e92919061177f565b6020604051808303815f875af115801561055a573d5f5f3e3d5ffd5b505050506040513d601f19601f8201168201806040525081019061057e91906117d0565b50505050565b5f600254905090565b5f5f610597610a15565b90506105a4858285610c5d565b6105af858585610ce8565b60019150509392505050565b5f6012905090565b5f5f6105cd610a15565b90506105ee8185856105df8589610911565b6105e99190611828565b610a1c565b600191505092915050565b610601610bdf565b5f73ffffffffffffffffffffffffffffffffffffffff168273ffffffffffffffffffffffffffffffffffffffff160361066f576040517f08c379a0000000000000000000000000000000000000000000000000000000008152600401610666906118a5565b60405180910390fd5b5f81116106b1576040517f08c379a00000000000000000000000000000000000000000000000000000000081526004016106a89061190d565b60405180910390fd5b6106bb8282610f54565b5050565b5f8111610701576040517f08c379a00000000000000000000000000000000000000000000000000000000081526004016106f890611975565b60405180910390fd5b61071261070c610a15565b826110a2565b61071a610a15565b73ffffffffffffffffffffffffffffffffffffffff167fcc16f5dbb4873280815c1ee09dbd06736cffcc184412cf7a71a0fdb75d397ca58260405161075f9190611523565b60405180910390a250565b5f5f5f8373ffffffffffffffffffffffffffffffffffffffff1673ffffffffffffffffffffffffffffffffffffffff1681526020019081526020015f20549050919050565b6107b7610bdf565b6107c05f611265565b565b5f60055f9054906101000a900473ffffffffffffffffffffffffffffffffffffffff16905090565b6060600480546107f990611659565b80601f016020809104026020016040519081016040528092919081815260200182805461082590611659565b80156108705780601f1061084757610100808354040283529160200191610870565b820191905f5260205f20905b81548152906001019060200180831161085357829003601f168201915b5050505050905090565b5f5f610884610a15565b90505f6108918286610911565b9050838110156108d6576040517f08c379a00000000000000000000000000000000000000000000000000000000081526004016108cd90611a03565b60405180910390fd5b6108e38286868403610a1c565b60019250505092915050565b5f5f6108f9610a15565b9050610906818585610ce8565b600191505092915050565b5f60015f8473ffffffffffffffffffffffffffffffffffffffff1673ffffffffffffffffffffffffffffffffffffffff1681526020019081526020015f205f8373ffffffffffffffffffffffffffffffffffffffff1673ffffffffffffffffffffffffffffffffffffffff1681526020019081526020015f2054905092915050565b61099b610bdf565b5f73ffffffffffffffffffffffffffffffffffffffff168173ffffffffffffffffffffffffffffffffffffffff1603610a09576040517f08c379a0000000000000000000000000000000000000000000000000000000008152600401610a0090611a91565b60405180910390fd5b610a1281611265565b50565b5f33905090565b5f73ffffffffffffffffffffffffffffffffffffffff168373ffffffffffffffffffffffffffffffffffffffff1603610a8a576040517f08c379a0000000000000000000000000000000000000000000000000000000008152600401610a8190611b1f565b60405180910390fd5b5f73ffffffffffffffffffffffffffffffffffffffff168273ffffffffffffffffffffffffffffffffffffffff1603610af8576040517f08c379a0000000000000000000000000000000000000000000000000000000008152600401610aef90611bad565b60405180910390fd5b8060015f8573ffffffffffffffffffffffffffffffffffffffff1673ffffffffffffffffffffffffffffffffffffffff1681526020019081526020015f205f8473ffffffffffffffffffffffffffffffffffffffff1673ffffffffffffffffffffffffffffffffffffffff1681526020019081526020015f20819055508173ffffffffffffffffffffffffffffffffffffffff168373ffffffffffffffffffffffffffffffffffffffff167f8c5be1e5ebec7d5bd14f71427d1e84f3dd0314c0f7b2291e5b200ac8c7c3b92583604051610bd29190611523565b60405180910390a3505050565b610be7610a15565b73ffffffffffffffffffffffffffffffffffffffff16610c056107c2565b73ffffffffffffffffffffffffffffffffffffffff1614610c5b576040517f08c379a0000000000000000000000000000000000000000000000000000000008152600401610c5290611c15565b60405180910390fd5b565b5f610c688484610911565b90507fffffffffffffffffffffffffffffffffffffffffffffffffffffffffffffffff8114610ce25781811015610cd4576040517f08c379a0000000000000000000000000000000000000000000000000000000008152600401610ccb90611c7d565b60405180910390fd5b610ce18484848403610a1c565b5b50505050565b5f73ffffffffffffffffffffffffffffffffffffffff168373ffffffffffffffffffffffffffffffffffffffff1603610d56576040517f08c379a0000000000000000000000000000000000000000000000000000000008152600401610d4d90611d0b565b60405180910390fd5b5f73ffffffffffffffffffffffffffffffffffffffff168273ffffffffffffffffffffffffffffffffffffffff1603610dc4576040517f08c379a0000000000000000000000000000000000000000000000000000000008152600401610dbb90611d99565b60405180910390fd5b610dcf838383611328565b5f5f5f8573ffffffffffffffffffffffffffffffffffffffff1673ffffffffffffffffffffffffffffffffffffffff1681526020019081526020015f2054905081811015610e52576040517f08c379a0000000000000000000000000000000000000000000000000000000008152600401610e4990611e27565b60405180910390fd5b8181035f5f8673ffffffffffffffffffffffffffffffffffffffff1673ffffffffffffffffffffffffffffffffffffffff1681526020019081526020015f2081905550815f5f8573ffffffffffffffffffffffffffffffffffffffff1673ffffffffffffffffffffffffffffffffffffffff1681526020019081526020015f205f82825401925050819055508273ffffffffffffffffffffffffffffffffffffffff168473ffffffffffffffffffffffffffffffffffffffff167fddf252ad1be2c89b69c2b068fc378daa952ba7f163c4a11628f55a4df523b3ef84604051610f3b9190611523565b60405180910390a3610f4e84848461132d565b50505050565b5f73ffffffffffffffffffffffffffffffffffffffff168273ffffffffffffffffffffffffffffffffffffffff1603610fc2576040517f08c379a0000000000000000000000000000000000000000000000000000000008152600401610fb990611e8f565b60405180910390fd5b610fcd5f8383611328565b8060025f828254610fde9190611828565b92505081905550805f5f8473ffffffffffffffffffffffffffffffffffffffff1673ffffffffffffffffffffffffffffffffffffffff1681526020019081526020015f205f82825401925050819055508173ffffffffffffffffffffffffffffffffffffffff165f73ffffffffffffffffffffffffffffffffffffffff167fddf252ad1be2c89b69c2b068fc378daa952ba7f163c4a11628f55a4df523b3ef8360405161108b9190611523565b60405180910390a361109e5f838361132d565b5050565b5f73ffffffffffffffffffffffffffffffffffffffff168273ffffffffffffffffffffffffffffffffffffffff1603611110576040517f08c379a000000000000000000000000000000000000000000000000000000000815260040161110790611f1d565b60405180910390fd5b61111b825f83611328565b5f5f5f8473ffffffffffffffffffffffffffffffffffffffff1673ffffffffffffffffffffffffffffffffffffffff1681526020019081526020015f205490508181101561119e576040517f08c379a000000000000000000000000000000000000000000000000000000000815260040161119590611fab565b60405180910390fd5b8181035f5f8573ffffffffffffffffffffffffffffffffffffffff1673ffffffffffffffffffffffffffffffffffffffff1681526020019081526020015f20819055508160025f82825403925050819055505f73ffffffffffffffffffffffffffffffffffffffff168373ffffffffffffffffffffffffffffffffffffffff167fddf252ad1be2c89b69c2b068fc378daa952ba7f163c4a11628f55a4df523b3ef8460405161124d9190611523565b60405180910390a3611260835f8461132d565b505050565b5f60055f9054906101000a900473ffffffffffffffffffffffffffffffffffffffff1690508160055f6101000a81548173ffffffffffffffffffffffffffffffffffffffff021916908373ffffffffffffffffffffffffffffffffffffffff1602179055508173ffffffffffffffffffffffffffffffffffffffff168173ffffffffffffffffffffffffffffffffffffffff167f8be0079c531659141344cd1fd0a4f28419497f9722a3daafe3b4186f6b6457e060405160405180910390a35050565b505050565b505050565b5f81519050919050565b5f82825260208201905092915050565b8281835e5f83830152505050565b5f601f19601f8301169050919050565b5f61137482611332565b61137e818561133c565b935061138e81856020860161134c565b6113978161135a565b840191505092915050565b5f6020820190508181035f8301526113ba818461136a565b905092915050565b5f5ffd5b5f73ffffffffffffffffffffffffffffffffffffffff82169050919050565b5f6113ef826113c6565b9050919050565b6113ff816113e5565b8114611409575f5ffd5b50565b5f8135905061141a816113f6565b92915050565b5f819050919050565b61143281611420565b811461143c575f5ffd5b50565b5f8135905061144d81611429565b92915050565b5f5f60408385031215611469576114686113c2565b5b5f6114768582860161140c565b92505060206114878582860161143f565b9150509250929050565b5f8115159050919050565b6114a581611491565b82525050565b5f6020820190506114be5f83018461149c565b92915050565b5f5f5f606084860312156114db576114da6113c2565b5b5f6114e88682870161140c565b93505060206114f98682870161140c565b925050604061150a8682870161143f565b9150509250925092565b61151d81611420565b82525050565b5f6020820190506115365f830184611514565b92915050565b5f60ff82169050919050565b6115518161153c565b82525050565b5f60208201905061156a5f830184611548565b92915050565b5f60208284031215611585576115846113c2565b5b5f6115928482850161143f565b91505092915050565b5f602082840312156115b0576115af6113c2565b5b5f6115bd8482850161140c565b91505092915050565b6115cf816113e5565b82525050565b5f6020820190506115e85f8301846115c6565b92915050565b5f5f60408385031215611604576116036113c2565b5b5f6116118582860161140c565b92505060206116228582860161140c565b9150509250929050565b7f4e487b71000000000000000000000000000000000000000000000000000000005f52602260045260245ffd5b5f600282049050600182168061167057607f821691505b6020821081036116835761168261162c565b5b50919050565b7f517565737458503a207265636f76657220746f207a65726f00000000000000005f82015250565b5f6116bd60188361133c565b91506116c882611689565b602082019050919050565b5f6020820190508181035f8301526116ea816116b1565b9050919050565b7f517565737458503a2063616e6e6f74207265636f766572206e617469766520585f8201527f5000000000000000000000000000000000000000000000000000000000000000602082015250565b5f61174b60218361133c565b9150611756826116f1565b604082019050919050565b5f6020820190508181035f8301526117788161173f565b9050919050565b5f6040820190506117925f8301856115c6565b61179f6020830184611514565b9392505050565b6117af81611491565b81146117b9575f5ffd5b50565b5f815190506117ca816117a6565b92915050565b5f602082840312156117e5576117e46113c2565b5b5f6117f2848285016117bc565b91505092915050565b7f4e487b71000000000000000000000000000000000000000000000000000000005f52601160045260245ffd5b5f61183282611420565b915061183d83611420565b9250828201905080821115611855576118546117fb565b5b92915050565b7f517565737458503a206d696e7420746f207a65726f00000000000000000000005f82015250565b5f61188f60158361133c565b915061189a8261185b565b602082019050919050565b5f6020820190508181035f8301526118bc81611883565b9050919050565b7f517565737458503a206d696e74207a65726f00000000000000000000000000005f82015250565b5f6118f760128361133c565b9150611902826118c3565b602082019050919050565b5f6020820190508181035f830152611924816118eb565b9050919050565b7f517565737458503a206275726e207a65726f00000000000000000000000000005f82015250565b5f61195f60128361133c565b915061196a8261192b565b602082019050919050565b5f6020820190508181035f83015261198c81611953565b9050919050565b7f45524332303a2064656372656173656420616c6c6f77616e63652062656c6f775f8201527f207a65726f000000000000000000000000000000000000000000000000000000602082015250565b5f6119ed60258361133c565b91506119f882611993565b604082019050919050565b5f6020820190508181035f830152611a1a816119e1565b9050919050565b7f4f776e61626c653a206e6577206f776e657220697320746865207a65726f20615f8201527f6464726573730000000000000000000000000000000000000000000000000000602082015250565b5f611a7b60268361133c565b9150611a8682611a21565b604082019050919050565b5f6020820190508181035f830152611aa881611a6f565b9050919050565b7f45524332303a20617070726f76652066726f6d20746865207a65726f206164645f8201527f7265737300000000000000000000000000000000000000000000000000000000602082015250565b5f611b0960248361133c565b9150611b1482611aaf565b604082019050919050565b5f6020820190508181035f830152611b3681611afd565b9050919050565b7f45524332303a20617070726f766520746f20746865207a65726f2061646472655f8201527f7373000000000000000000000000000000000000000000000000000000000000602082015250565b5f611b9760228361133c565b9150611ba282611b3d565b604082019050919050565b5f6020820190508181035f830152611bc481611b8b565b9050919050565b7f4f776e61626c653a2063616c6c6572206973206e6f7420746865206f776e65725f82015250565b5f611bff60208361133c565b9150611c0a82611bcb565b602082019050919050565b5f6020820190508181035f830152611c2c81611bf3565b9050919050565b7f45524332303a20696e73756666696369656e7420616c6c6f77616e63650000005f82015250565b5f611c67601d8361133c565b9150611c7282611c33565b602082019050919050565b5f6020820190508181035f830152611c9481611c5b565b9050919050565b7f45524332303a207472616e736665722066726f6d20746865207a65726f2061645f8201527f6472657373000000000000000000000000000000000000000000000000000000602082015250565b5f611cf560258361133c565b9150611d0082611c9b565b604082019050919050565b5f6020820190508181035f830152611d2281611ce9565b9050919050565b7f45524332303a207472616e7366657220746f20746865207a65726f20616464725f8201527f6573730000000000000000000000000000000000000000000000000000000000602082015250565b5f611d8360238361133c565b9150611d8e82611d29565b604082019050919050565b5f6020820190508181035f830152611db081611d77565b9050919050565b7f45524332303a207472616e7366657220616d6f756e74206578636565647320625f8201527f616c616e63650000000000000000000000000000000000000000000000000000602082015250565b5f611e1160268361133c565b9150611e1c82611db7565b604082019050919050565b5f6020820190508181035f830152611e3e81611e05565b9050919050565b7f45524332303a206d696e7420746f20746865207a65726f2061646472657373005f82015250565b5f611e79601f8361133c565b9150611e8482611e45565b602082019050919050565b5f6020820190508181035f830152611ea681611e6d565b9050919050565b7f45524332303a206275726e2066726f6d20746865207a65726f206164647265735f8201527f7300000000000000000000000000000000000000000000000000000000000000602082015250565b5f611f0760218361133c565b9150611f1282611ead565b604082019050919050565b5f6020820190508181035f830152611f3481611efb565b9050919050565b7f45524332303a206275726e20616d6f756e7420657863656564732062616c616e5f8201527f6365000000000000000000000000000000000000000000000000000000000000602082015250565b5f611f9560228361133c565b9150611fa082611f3b565b604082019050919050565b5f6020820190508181035f830152611fc281611f89565b905091905056fea26469706673582212205d326768c4e0566a715a7dd0ab023584343c196b477ab08c59e3c2d18075d4c164736f6c634300081e0033","linkReferences":{}},"methodIdentifiers":{"allowance(address,address)":"dd62ed3e","approve(address,uint256)":"095ea7b3","balanceOf(address)":"70a08231","burn(uint256)":"42966c68","decimals()":"313ce567","decreaseAllowance(address,uint256)":"a457c2d7","increaseAllowance(address,uint256)":"39509351","mint(address,uint256)":"40c10f19","name()":"06fdde03","owner()":"8da5cb5b","recoverERC20(address,address,uint256)":"1171bda9","renounceOwnership()":"715018a6","symbol()":"95d89b41","totalSupply()":"18160ddd","transfer(address,uint256)":"a9059cbb","transferFrom(address,address,uint256)":"23b872dd","transferOwnership(address)":"f2fde38b"},"id":36}