{"abi":[{"type":"constructor","inputs":[{"name":"xpToken_","type":"address","internalType":"address"},{"name":"badges_","type":"address","internalType":"address"}],"stateMutability":"nonpayable"},{"type":"fallback","stateMutability":"payable"},{"type":"receive","stateMutability":"payable"},{"type":"function","name":"badges","inputs":[],"outputs":[{"name":"","type":"address","internalType":"contract QuestBadges"}],"stateMutability":"view"},{"type":"function","name":"completeQuest","inputs":[{"name":"questId","type":"uint256","internalType":"uint256"}],"outputs":[],"stateMutability":"nonpayable"},{"type":"function","name":"completedOnce","inputs":[{"name":"","type":"address","internalType":"address"},{"name":"","type":"uint256","internalType":"uint256"}],"outputs":[{"name":"","type":"bool","internalType":"bool"}],"stateMutability":"view"},{"type":"function","name":"createQuest","inputs":[{"name":"title","type":"string","internalType":"string"},{"name":"description","type":"string","internalType":"string"},{"name":"rewardXP","type":"uint256","internalType":"uint256"},{"name":"isDaily","type":"bool","internalType":"bool"}],"outputs":[{"name":"questId","type":"uint256","internalType":"uint256"}],"stateMutability":"nonpayable"},{"type":"function","name":"currentStreak","inputs":[{"name":"","type":"address","internalType":"address"}],"outputs":[{"name":"","type":"uint256","internalType":"uint256"}],"stateMutability":"view"},{"type":"function","name":"getQuest","inputs":[{"name":"questId","type":"uint256","internalType":"uint256"}],"outputs":[{"name":"","type":"tuple","internalType":"struct QuestManager.Quest","components":[{"name":"id","type":"uint256","internalType":"uint256"},{"name":"title","type":"string","internalType":"string"},{"name":"description","type":"string","internalType":"string"},{"name":"rewardXP","type":"uint256","internalType":"uint256"},{"name":"active","type":"bool","internalType":"bool"},{"name":"isDaily","type":"bool","internalType":"bool"}]}],"stateMutability":"view"},{"type":"function","name":"getQuestsInRange","inputs":[{"name":"start","type":"uint256","internalType":"uint256"},{"name":"end","type":"uint256","internalType":"uint256"}],"outputs":[{"name":"result","type":"tuple[]","internalType":"struct QuestManager.Quest[]","components":[{"name":"id","type":"uint256","internalType":"uint256"},{"name":"title","type":"string","internalType":"string"},{"name":"description","type":"string","internalType":"string"},{"name":"rewardXP","type":"uint256","internalType":"uint256"},{"name":"active","type":"bool","internalType":"bool"},{"name":"isDaily","type":"bool","internalType":"bool"}]}],"stateMutability":"view"},{"type":"function","name":"getUserStats","inputs":[{"name":"user","type":"address","internalType":"address"}],"outputs":[{"name":"xp","type":"uint256","internalType":"uint256"},{"name":"streak","type":"uint256","internalType":"uint256"},{"name":"total","type":"uint256","internalType":"uint256"},{"name":"lastCheckinDay","type":"uint256","internalType":"uint256"}],"stateMutability":"view"},{"type":"function","name":"lastDailyCheckinDay","inputs":[{"name":"","type":"address","internalType":"address"}],"outputs":[{"name":"","type":"uint256","internalType":"uint256"}],"stateMutability":"view"},{"type":"function","name":"nextQuestId","inputs":[],"outputs":[{"name":"","type":"uint256","internalType":"uint256"}],"stateMutability":"view"},{"type":"function","name":"owner","inputs":[],"outputs":[{"name":"","type":"address","internalType":"address"}],"stateMutability":"view"},{"type":"function","name":"quests","inputs":[{"name":"","type":"uint256","internalType":"uint256"}],"outputs":[{"name":"id","type":"uint256","internalType":"uint256"},{"name":"title","type":"string","internalType":"string"},{"name":"description","type":"string","internalType":"string"},{"name":"rewardXP","type":"uint256","internalType":"uint256"},{"name":"active","type":"bool","internalType":"bool"},{"name":"isDaily","type":"bool","internalType":"bool"}],"stateMutability":"view"},{"type":"function","name":"recoverERC20","inputs":[{"name":"token","type":"address","internalType":"address"},{"name":"to","type":"address","internalType":"address"},{"name":"amount","type":"uint256","internalType":"uint256"}],"outputs":[],"stateMutability":"nonpayable"},{"type":"function","name":"recoverETH","inputs":[{"name":"to","type":"address","internalType":"address payable"},{"name":"amount","type":"uint256","internalType":"uint256"}],"outputs":[],"stateMutability":"nonpayable"},{"type":"function","name":"renounceOwnership","inputs":[],"outputs":[],"stateMutability":"nonpayable"},{"type":"function","name":"setBadgesContract","inputs":[{"name":"badges_","type":"address","internalType":"address"}],"outputs":[],"stateMutability":"nonpayable"},{"type":"function","name":"setQuestActive","inputs":[{"name":"questId","type":"uint256","internalType":"uint256"},{"name":"active","type":"bool","internalType":"bool"}],"outputs":[],"stateMutability":"nonpayable"},{"type":"function","name":"setXPToken","inputs":[{"name":"xpToken_","type":"address","internalType":"address"}],"outputs":[],"stateMutability":"nonpayable"},{"type":"function","name":"totalCompleted","inputs":[{"name":"","type":"address","internalType":"address"}],"outputs":[{"name":"","type":"uint256","internalType":"uint256"}],"stateMutability":"view"},{"type":"function","name":"transferOwnership","inputs":[{"name":"newOwner","type":"address","internalType":"address"}],"outputs":[],"stateMutability":"nonpayable"},{"type":"function","name":"updateQuest","inputs":[{"name":"questId","type":"uint256","internalType":"uint256"},{"name":"title","type":"string","internalType":"string"},{"name":"description","type":"string","internalType":"string"},{"name":"rewardXP","type":"uint256","internalType":"uint256"},{"name":"active","type":"bool","internalType":"bool"},{"name":"isDaily","type":"bool","internalType":"bool"}],"outputs":[],"stateMutability":"nonpayable"},{"type":"function","name":"xpToken","inputs":[],"outputs":[{"name":"","type":"address","internalType":"contract QuestXP"}],"stateMutability":"view"},{"type":"event","name":"BadgesContractUpdated","inputs":[{"name":"newBadgesContract","type":"address","indexed":true,"internalType":"address"}],"anonymous":false},{"type":"event","name":"DailyCheckin","inputs":[{"name":"user","type":"address","indexed":true,"internalType":"address"},{"name":"dayIndex","type":"uint256","indexed":false,"internalType":"uint256"},{"name":"newStreak","type":"uint256","indexed":false,"internalType":"uint256"}],"anonymous":false},{"type":"event","name":"OwnershipTransferred","inputs":[{"name":"previousOwner","type":"address","indexed":true,"internalType":"address"},{"name":"newOwner","type":"address","indexed":true,"internalType":"address"}],"anonymous":false},{"type":"event","name":"QuestCompleted","inputs":[{"name":"user","type":"address","indexed":true,"internalType":"address"},{"name":"questId","type":"uint256","indexed":true,"internalType":"uint256"},{"name":"rewardXP","type":"uint256","indexed":false,"internalType":"uint256"}],"anonymous":false},{"type":"event","name":"QuestCreated","inputs":[{"name":"questId","type":"uint256","indexed":true,"internalType":"uint256"},{"name":"title","type":"string","indexed":false,"internalType":"string"},{"name":"rewardXP","type":"uint256","indexed":false,"internalType":"uint256"},{"name":"isDaily","type":"bool","indexed":false,"internalType":"bool"}],"anonymous":false},{"type":"event","name":"QuestUpdated","inputs":[{"name":"questId","type":"uint256","indexed":true,"internalType":"uint256"},{"name":"title","type":"string","indexed":false,"internalType":"string"},{"name":"rewardXP","type":"uint256","indexed":false,"internalType":"uint256"},{"name":"active","type":"bool","indexed":false,"internalType":"bool"},{"name":"isDaily","type":"bool","indexed":false,"internalType":"bool"}],"anonymous":false},{"type":"event","name":"XPTokenUpdated","inputs":[{"name":"newXPToken","type":"address","indexed":true,"internalType":"address"}],"anonymous":false}],"bytecode":{"object":"0x60806040526001600455348015610014575f5ffd5b50604051613e7e380380613e7e833981810160405281019061003691906102e2565b6100526100476101bc60201b60201c565b6101c360201b60201c565b600180819055505f73ffffffffffffffffffffffffffffffffffffffff168273ffffffffffffffffffffffffffffffffffffffff16036100c7576040517f08c379a00000000000000000000000000000000000000000000000000000000081526004016100be9061037a565b60405180910390fd5b5f73ffffffffffffffffffffffffffffffffffffffff168173ffffffffffffffffffffffffffffffffffffffff1603610135576040517f08c379a000000000000000000000000000000000000000000000000000000000815260040161012c906103e2565b60405180910390fd5b8160025f6101000a81548173ffffffffffffffffffffffffffffffffffffffff021916908373ffffffffffffffffffffffffffffffffffffffff1602179055508060035f6101000a81548173ffffffffffffffffffffffffffffffffffffffff021916908373ffffffffffffffffffffffffffffffffffffffff1602179055505050610400565b5f33905090565b5f5f5f9054906101000a900473ffffffffffffffffffffffffffffffffffffffff169050815f5f6101000a81548173ffffffffffffffffffffffffffffffffffffffff021916908373ffffffffffffffffffffffffffffffffffffffff1602179055508173ffffffffffffffffffffffffffffffffffffffff168173ffffffffffffffffffffffffffffffffffffffff167f8be0079c531659141344cd1fd0a4f28419497f9722a3daafe3b4186f6b6457e060405160405180910390a35050565b5f5ffd5b5f73ffffffffffffffffffffffffffffffffffffffff82169050919050565b5f6102b182610288565b9050919050565b6102c1816102a7565b81146102cb575f5ffd5b50565b5f815190506102dc816102b8565b92915050565b5f5f604083850312156102f8576102f7610284565b5b5f610305858286016102ce565b9250506020610316858286016102ce565b9150509250929050565b5f82825260208201905092915050565b7f51756573744d616e616765723a20787020746f6b656e207a65726f00000000005f82015250565b5f610364601b83610320565b915061036f82610330565b602082019050919050565b5f6020820190508181035f83015261039181610358565b9050919050565b7f51756573744d616e616765723a20626164676573207a65726f000000000000005f82015250565b5f6103cc601983610320565b91506103d782610398565b602082019050919050565b5f6020820190508181035f8301526103f9816103c0565b9050919050565b613a718061040d5f395ff3fe608060405260043610610138575f3560e01c80636858de27116100aa57806392d14ea01161006e57806392d14ea01461043c578063932cc05714610464578063ae5014b1146104a0578063d638c983146104ca578063e085f980146104f4578063f2fde38b1461053557610139565b80636858de271461035c578063715018a61461039857806381322060146103ae578063843e6af9146103d65780638da5cb5b1461041257610139565b80633e0c0629116100fc5780633e0c06291461021957806349f86f34146102415780634e43603a1461027d578063528be0a9146102bc5780635c45f739146102e457806367de78541461032057610139565b80631171bda91461013b5780631a646240146101635780631bbe20221461018d5780631c329337146101b55780632295b60a146101dd57610139565b5b005b348015610146575f5ffd5b50610161600480360381019061015c9190612298565b61055d565b005b34801561016e575f5ffd5b50610177610726565b6040516101849190612343565b60405180910390f35b348015610198575f5ffd5b506101b360048036038101906101ae91906123f2565b61074b565b005b3480156101c0575f5ffd5b506101db60048036038101906101d691906124bc565b6108e6565b005b3480156101e8575f5ffd5b5061020360048036038101906101fe91906124fa565b6109cd565b604051610210919061270e565b60405180910390f35b348015610224575f5ffd5b5061023f600480360381019061023a9190612769565b610d0c565b005b34801561024c575f5ffd5b50610267600480360381019061026291906127a7565b610dca565b604051610274919061285f565b60405180910390f35b348015610288575f5ffd5b506102a3600480360381019061029e919061287f565b610fb2565b6040516102b394939291906128b9565b60405180910390f35b3480156102c7575f5ffd5b506102e260048036038101906102dd91906127a7565b611118565b005b3480156102ef575f5ffd5b5061030a6004803603810190610305919061287f565b611637565b60405161031791906128fc565b60405180910390f35b34801561032b575f5ffd5b506103466004803603810190610341919061287f565b61164c565b60405161035391906128fc565b60405180910390f35b348015610367575f5ffd5b50610382600480360381019061037d9190612915565b611661565b60405161038f91906128fc565b60405180910390f35b3480156103a3575f5ffd5b506103ac61189a565b005b3480156103b9575f5ffd5b506103d460048036038101906103cf919061287f565b6118ad565b005b3480156103e1575f5ffd5b506103fc60048036038101906103f791906129b8565b6119a9565b6040516104099190612a05565b60405180910390f35b34801561041d575f5ffd5b506104266119d3565b6040516104339190612a2d565b60405180910390f35b348015610447575f5ffd5b50610462600480360381019061045d919061287f565b6119fa565b005b34801561046f575f5ffd5b5061048a6004803603810190610485919061287f565b611af6565b60405161049791906128fc565b60405180910390f35b3480156104ab575f5ffd5b506104b4611b0b565b6040516104c19190612a66565b60405180910390f35b3480156104d5575f5ffd5b506104de611b30565b6040516104eb91906128fc565b60405180910390f35b3480156104ff575f5ffd5b5061051a600480360381019061051591906127a7565b611b36565b60405161052c96959493929190612ac7565b60405180910390f35b348015610540575f5ffd5b5061055b6004803603810190610556919061287f565b611c93565b005b610565611d15565b5f73ffffffffffffffffffffffffffffffffffffffff168273ffffffffffffffffffffffffffffffffffffffff16036105d3576040517f08c379a00000000000000000000000000000000000000000000000000000000081526004016105ca90612b7e565b60405180910390fd5b60025f9054906101000a900473ffffffffffffffffffffffffffffffffffffffff1673ffffffffffffffffffffffffffffffffffffffff168373ffffffffffffffffffffffffffffffffffffffff1603610662576040517f08c379a000000000000000000000000000000000000000000000000000000000815260040161065990612c0c565b60405180910390fd5b5f8373ffffffffffffffffffffffffffffffffffffffff1663a9059cbb84846040518363ffffffff1660e01b815260040161069e929190612c2a565b6020604051808303815f875af11580156106ba573d5f5f3e3d5ffd5b505050506040513d601f19601f820116820180604052508101906106de9190612c65565b905080610720576040517f08c379a000000000000000000000000000000000000000000000000000000000815260040161071790612cda565b60405180910390fd5b50505050565b60035f9054906101000a900473ffffffffffffffffffffffffffffffffffffffff1681565b610753611d15565b5f60055f8a81526020019081526020015f2090505f815f0154036107ac576040517f08c379a00000000000000000000000000000000000000000000000000000000081526004016107a390612d68565b60405180910390fd5b5f88889050116107f1576040517f08c379a00000000000000000000000000000000000000000000000000000000081526004016107e890612dd0565b60405180910390fd5b5f8411610833576040517f08c379a000000000000000000000000000000000000000000000000000000000815260040161082a90612e38565b60405180910390fd5b8787826001019182610846929190613081565b50858582600201918261085a929190613081565b5083816003018190555082816004015f6101000a81548160ff021916908315150217905550818160040160016101000a81548160ff021916908315150217905550887f0f32a3b78eb566a0df415d21d8d693247a2940e847861c30bef6fa8141370b9d89898787876040516108d3959493929190613188565b60405180910390a2505050505050505050565b6108ee611d15565b5f60055f8481526020019081526020015f2090505f815f015403610947576040517f08c379a000000000000000000000000000000000000000000000000000000000815260040161093e90612d68565b60405180910390fd5b81816004015f6101000a81548160ff021916908315150217905550827f0f32a3b78eb566a0df415d21d8d693247a2940e847861c30bef6fa8141370b9d826001018360030154846004015f9054906101000a900460ff168560040160019054906101000a900460ff166040516109c09493929190613255565b60405180910390a2505050565b60605f8311610a11576040517f08c379a0000000000000000000000000000000000000000000000000000000008152600401610a08906132e9565b60405180910390fd5b82821015610a54576040517f08c379a0000000000000000000000000000000000000000000000000000000008152600401610a4b90613351565b60405180910390fd5b5f8290506004548110610a73576001600454610a70919061339c565b90505b5f5f90505f8590505b828111610abf575f60055f8381526020019081526020015f205f015414610aac578180610aa8906133cf565b9250505b8080610ab7906133cf565b915050610a7c565b508067ffffffffffffffff811115610ada57610ad9612e60565b5b604051908082528060200260200182016040528015610b1357816020015b610b006121cd565b815260200190600190039081610af85790505b5092505f5f90505f8690505b838111610d02575f60055f8381526020019081526020015f205f015414610cef5760055f8281526020019081526020015f206040518060c00160405290815f8201548152602001600182018054610b7590612eba565b80601f0160208091040260200160405190810160405280929190818152602001828054610ba190612eba565b8015610bec5780601f10610bc357610100808354040283529160200191610bec565b820191905f5260205f20905b815481529060010190602001808311610bcf57829003601f168201915b50505050508152602001600282018054610c0590612eba565b80601f0160208091040260200160405190810160405280929190818152602001828054610c3190612eba565b8015610c7c5780601f10610c5357610100808354040283529160200191610c7c565b820191905f5260205f20905b815481529060010190602001808311610c5f57829003601f168201915b5050505050815260200160038201548152602001600482015f9054906101000a900460ff161515151581526020016004820160019054906101000a900460ff161515151581525050858380610cd0906133cf565b945081518110610ce357610ce2613416565b5b60200260200101819052505b8080610cfa906133cf565b915050610b1f565b5050505092915050565b610d14611d15565b5f73ffffffffffffffffffffffffffffffffffffffff168273ffffffffffffffffffffffffffffffffffffffff1603610d82576040517f08c379a0000000000000000000000000000000000000000000000000000000008152600401610d7990612b7e565b60405180910390fd5b8173ffffffffffffffffffffffffffffffffffffffff166108fc8290811502906040515f60405180830381858888f19350505050158015610dc5573d5f5f3e3d5ffd5b505050565b610dd26121cd565b5f60055f8481526020019081526020015f205f015403610e27576040517f08c379a0000000000000000000000000000000000000000000000000000000008152600401610e1e90612d68565b60405180910390fd5b60055f8381526020019081526020015f206040518060c00160405290815f8201548152602001600182018054610e5c90612eba565b80601f0160208091040260200160405190810160405280929190818152602001828054610e8890612eba565b8015610ed35780601f10610eaa57610100808354040283529160200191610ed3565b820191905f5260205f20905b815481529060010190602001808311610eb657829003601f168201915b50505050508152602001600282018054610eec90612eba565b80601f0160208091040260200160405190810160405280929190818152602001828054610f1890612eba565b8015610f635780601f10610f3a57610100808354040283529160200191610f63565b820191905f5260205f20905b815481529060010190602001808311610f4657829003601f168201915b5050505050815260200160038201548152602001600482015f9054906101000a900460ff161515151581526020016004820160019054906101000a900460ff1615151515815250509050919050565b5f5f5f5f60025f9054906101000a900473ffffffffffffffffffffffffffffffffffffffff1673ffffffffffffffffffffffffffffffffffffffff166370a08231866040518263ffffffff1660e01b81526004016110109190612a2d565b602060405180830381865afa15801561102b573d5f5f3e3d5ffd5b505050506040513d601f19601f8201168201806040525081019061104f9190613457565b935060085f8673ffffffffffffffffffffffffffffffffffffffff1673ffffffffffffffffffffffffffffffffffffffff1681526020019081526020015f2054925060095f8673ffffffffffffffffffffffffffffffffffffffff1673ffffffffffffffffffffffffffffffffffffffff1681526020019081526020015f2054915060075f8673ffffffffffffffffffffffffffffffffffffffff1673ffffffffffffffffffffffffffffffffffffffff1681526020019081526020015f205490509193509193565b611120611d93565b5f60055f8381526020019081526020015f206040518060c00160405290815f820154815260200160018201805461115690612eba565b80601f016020809104026020016040519081016040528092919081815260200182805461118290612eba565b80156111cd5780601f106111a4576101008083540402835291602001916111cd565b820191905f5260205f20905b8154815290600101906020018083116111b057829003601f168201915b505050505081526020016002820180546111e690612eba565b80601f016020809104026020016040519081016040528092919081815260200182805461121290612eba565b801561125d5780601f106112345761010080835404028352916020019161125d565b820191905f5260205f20905b81548152906001019060200180831161124057829003601f168201915b5050505050815260200160038201548152602001600482015f9054906101000a900460ff161515151581526020016004820160019054906101000a900460ff16151515158152505090505f815f0151036112ec576040517f08c379a00000000000000000000000000000000000000000000000000000000081526004016112e390612d68565b60405180910390fd5b8060800151611330576040517f08c379a0000000000000000000000000000000000000000000000000000000008152600401611327906134cc565b60405180910390fd5b8060a00151156113485761134333611de2565b611353565b6113523383611ffb565b5b600160095f3373ffffffffffffffffffffffffffffffffffffffff1673ffffffffffffffffffffffffffffffffffffffff1681526020019081526020015f205f8282546113a091906134ea565b9250508190555060025f9054906101000a900473ffffffffffffffffffffffffffffffffffffffff1673ffffffffffffffffffffffffffffffffffffffff166340c10f193383606001516040518363ffffffff1660e01b8152600401611407929190612c2a565b5f604051808303815f87803b15801561141e575f5ffd5b505af1158015611430573d5f5f3e3d5ffd5b50505050813373ffffffffffffffffffffffffffffffffffffffff167fe0b5124b12e878158288d1002ed1fb960faff0ec1c7b3168f86d9d1afd1b0d8b836060015160405161147f91906128fc565b60405180910390a35f60025f9054906101000a900473ffffffffffffffffffffffffffffffffffffffff1673ffffffffffffffffffffffffffffffffffffffff166370a08231336040518263ffffffff1660e01b81526004016114e29190612a2d565b602060405180830381865afa1580156114fd573d5f5f3e3d5ffd5b505050506040513d601f19601f820116820180604052508101906115219190613457565b905060035f9054906101000a900473ffffffffffffffffffffffffffffffffffffffff1673ffffffffffffffffffffffffffffffffffffffff16631aa3fd203360085f3373ffffffffffffffffffffffffffffffffffffffff1673ffffffffffffffffffffffffffffffffffffffff1681526020019081526020015f205460095f3373ffffffffffffffffffffffffffffffffffffffff1673ffffffffffffffffffffffffffffffffffffffff1681526020019081526020015f2054856040518563ffffffff1660e01b81526004016115fd949392919061351d565b5f604051808303815f87803b158015611614575f5ffd5b505af1158015611626573d5f5f3e3d5ffd5b5050505050506116346120fc565b50565b6008602052805f5260405f205f915090505481565b6007602052805f5260405f205f915090505481565b5f61166a611d15565b5f87879050116116af576040517f08c379a00000000000000000000000000000000000000000000000000000000081526004016116a690612dd0565b60405180910390fd5b5f83116116f1576040517f08c379a00000000000000000000000000000000000000000000000000000000081526004016116e890612e38565b60405180910390fd5b60045f815480929190611703906133cf565b9190505590506040518060c0016040528082815260200188888080601f0160208091040260200160405190810160405280939291908181526020018383808284375f81840152601f19601f82011690508083019250505050505050815260200186868080601f0160208091040260200160405190810160405280939291908181526020018383808284375f81840152601f19601f82011690508083019250505050505050815260200184815260200160011515815260200183151581525060055f8381526020019081526020015f205f820151815f015560208201518160010190816117ef9190613560565b5060408201518160020190816118059190613560565b50606082015181600301556080820151816004015f6101000a81548160ff02191690831515021790555060a08201518160040160016101000a81548160ff021916908315150217905550905050807fb7d8fe54aaa4d8b37aa0aae9b0af7fec40f8781082160902baa71f72c27889e888888686604051611888949392919061362f565b60405180910390a29695505050505050565b6118a2611d15565b6118ab5f612105565b565b6118b5611d15565b5f73ffffffffffffffffffffffffffffffffffffffff168173ffffffffffffffffffffffffffffffffffffffff1603611923576040517f08c379a000000000000000000000000000000000000000000000000000000000815260040161191a906136b7565b60405180910390fd5b8060035f6101000a81548173ffffffffffffffffffffffffffffffffffffffff021916908373ffffffffffffffffffffffffffffffffffffffff1602179055508073ffffffffffffffffffffffffffffffffffffffff167fdbf7fcd569351175c6ef2834144bebb1005d7cab7e345a4dfd2528b8f4b8be8060405160405180910390a250565b6006602052815f5260405f20602052805f5260405f205f915091509054906101000a900460ff1681565b5f5f5f9054906101000a900473ffffffffffffffffffffffffffffffffffffffff16905090565b611a02611d15565b5f73ffffffffffffffffffffffffffffffffffffffff168173ffffffffffffffffffffffffffffffffffffffff1603611a70576040517f08c379a0000000000000000000000000000000000000000000000000000000008152600401611a679061371f565b60405180910390fd5b8060025f6101000a81548173ffffffffffffffffffffffffffffffffffffffff021916908373ffffffffffffffffffffffffffffffffffffffff1602179055508073ffffffffffffffffffffffffffffffffffffffff167f09af098d1984431cd3b6118de9d8556db03c18d59ba6827cd41017ad6f0e241060405160405180910390a250565b6009602052805f5260405f205f915090505481565b60025f9054906101000a900473ffffffffffffffffffffffffffffffffffffffff1681565b60045481565b6005602052805f5260405f205f91509050805f015490806001018054611b5b90612eba565b80601f0160208091040260200160405190810160405280929190818152602001828054611b8790612eba565b8015611bd25780601f10611ba957610100808354040283529160200191611bd2565b820191905f5260205f20905b815481529060010190602001808311611bb557829003601f168201915b505050505090806002018054611be790612eba565b80601f0160208091040260200160405190810160405280929190818152602001828054611c1390612eba565b8015611c5e5780601f10611c3557610100808354040283529160200191611c5e565b820191905f5260205f20905b815481529060010190602001808311611c4157829003601f168201915b505050505090806003015490806004015f9054906101000a900460ff16908060040160019054906101000a900460ff16905086565b611c9b611d15565b5f73ffffffffffffffffffffffffffffffffffffffff168173ffffffffffffffffffffffffffffffffffffffff1603611d09576040517f08c379a0000000000000000000000000000000000000000000000000000000008152600401611d00906137ad565b60405180910390fd5b611d1281612105565b50565b611d1d6121c6565b73ffffffffffffffffffffffffffffffffffffffff16611d3b6119d3565b73ffffffffffffffffffffffffffffffffffffffff1614611d91576040517f08c379a0000000000000000000000000000000000000000000000000000000008152600401611d8890613815565b60405180910390fd5b565b600260015403611dd8576040517f08c379a0000000000000000000000000000000000000000000000000000000008152600401611dcf9061387d565b60405180910390fd5b6002600181905550565b5f6201518042611df291906138c8565b90505f60075f8473ffffffffffffffffffffffffffffffffffffffff1673ffffffffffffffffffffffffffffffffffffffff1681526020019081526020015f20549050818110611e77576040517f08c379a0000000000000000000000000000000000000000000000000000000008152600401611e6e90613968565b60405180910390fd5b600182611e84919061339c565b8103611ee357600160085f8573ffffffffffffffffffffffffffffffffffffffff1673ffffffffffffffffffffffffffffffffffffffff1681526020019081526020015f205f828254611ed791906134ea565b92505081905550611f27565b600160085f8573ffffffffffffffffffffffffffffffffffffffff1673ffffffffffffffffffffffffffffffffffffffff1681526020019081526020015f20819055505b8160075f8573ffffffffffffffffffffffffffffffffffffffff1673ffffffffffffffffffffffffffffffffffffffff1681526020019081526020015f20819055508273ffffffffffffffffffffffffffffffffffffffff167f28b131c4e2da70e2aaf0daf291b825eae0fb46025cfbe446c660a8a1b89300598360085f8773ffffffffffffffffffffffffffffffffffffffff1673ffffffffffffffffffffffffffffffffffffffff1681526020019081526020015f2054604051611fee929190613986565b60405180910390a2505050565b60065f8373ffffffffffffffffffffffffffffffffffffffff1673ffffffffffffffffffffffffffffffffffffffff1681526020019081526020015f205f8281526020019081526020015f205f9054906101000a900460ff1615612094576040517f08c379a000000000000000000000000000000000000000000000000000000000815260040161208b90613a1d565b60405180910390fd5b600160065f8473ffffffffffffffffffffffffffffffffffffffff1673ffffffffffffffffffffffffffffffffffffffff1681526020019081526020015f205f8381526020019081526020015f205f6101000a81548160ff0219169083151502179055505050565b60018081905550565b5f5f5f9054906101000a900473ffffffffffffffffffffffffffffffffffffffff169050815f5f6101000a81548173ffffffffffffffffffffffffffffffffffffffff021916908373ffffffffffffffffffffffffffffffffffffffff1602179055508173ffffffffffffffffffffffffffffffffffffffff168173ffffffffffffffffffffffffffffffffffffffff167f8be0079c531659141344cd1fd0a4f28419497f9722a3daafe3b4186f6b6457e060405160405180910390a35050565b5f33905090565b6040518060c001604052805f815260200160608152602001606081526020015f81526020015f151581526020015f151581525090565b5f5ffd5b5f5ffd5b5f73ffffffffffffffffffffffffffffffffffffffff82169050919050565b5f6122348261220b565b9050919050565b6122448161222a565b811461224e575f5ffd5b50565b5f8135905061225f8161223b565b92915050565b5f819050919050565b61227781612265565b8114612281575f5ffd5b50565b5f813590506122928161226e565b92915050565b5f5f5f606084860312156122af576122ae612203565b5b5f6122bc86828701612251565b93505060206122cd86828701612251565b92505060406122de86828701612284565b9150509250925092565b5f819050919050565b5f61230b6123066123018461220b565b6122e8565b61220b565b9050919050565b5f61231c826122f1565b9050919050565b5f61232d82612312565b9050919050565b61233d81612323565b82525050565b5f6020820190506123565f830184612334565b92915050565b5f5ffd5b5f5ffd5b5f5ffd5b5f5f83601f84011261237d5761237c61235c565b5b8235905067ffffffffffffffff81111561239a57612399612360565b5b6020830191508360018202830111156123b6576123b5612364565b5b9250929050565b5f8115159050919050565b6123d1816123bd565b81146123db575f5ffd5b50565b5f813590506123ec816123c8565b92915050565b5f5f5f5f5f5f5f5f60c0898b03121561240e5761240d612203565b5b5f61241b8b828c01612284565b985050602089013567ffffffffffffffff81111561243c5761243b612207565b5b6124488b828c01612368565b9750975050604089013567ffffffffffffffff81111561246b5761246a612207565b5b6124778b828c01612368565b9550955050606061248a8b828c01612284565b935050608061249b8b828c016123de565b92505060a06124ac8b828c016123de565b9150509295985092959890939650565b5f5f604083850312156124d2576124d1612203565b5b5f6124df85828601612284565b92505060206124f0858286016123de565b9150509250929050565b5f5f604083850312156125105761250f612203565b5b5f61251d85828601612284565b925050602061252e85828601612284565b9150509250929050565b5f81519050919050565b5f82825260208201905092915050565b5f819050602082019050919050565b61256a81612265565b82525050565b5f81519050919050565b5f82825260208201905092915050565b8281835e5f83830152505050565b5f601f19601f8301169050919050565b5f6125b282612570565b6125bc818561257a565b93506125cc81856020860161258a565b6125d581612598565b840191505092915050565b6125e9816123bd565b82525050565b5f60c083015f8301516126045f860182612561565b506020830151848203602086015261261c82826125a8565b9150506040830151848203604086015261263682826125a8565b915050606083015161264b6060860182612561565b50608083015161265e60808601826125e0565b5060a083015161267160a08601826125e0565b508091505092915050565b5f61268783836125ef565b905092915050565b5f602082019050919050565b5f6126a582612538565b6126af8185612542565b9350836020820285016126c185612552565b805f5b858110156126fc57848403895281516126dd858261267c565b94506126e88361268f565b925060208a019950506001810190506126c4565b50829750879550505050505092915050565b5f6020820190508181035f830152612726818461269b565b905092915050565b5f6127388261220b565b9050919050565b6127488161272e565b8114612752575f5ffd5b50565b5f813590506127638161273f565b92915050565b5f5f6040838503121561277f5761277e612203565b5b5f61278c85828601612755565b925050602061279d85828601612284565b9150509250929050565b5f602082840312156127bc576127bb612203565b5b5f6127c984828501612284565b91505092915050565b5f60c083015f8301516127e75f860182612561565b50602083015184820360208601526127ff82826125a8565b9150506040830151848203604086015261281982826125a8565b915050606083015161282e6060860182612561565b50608083015161284160808601826125e0565b5060a083015161285460a08601826125e0565b508091505092915050565b5f6020820190508181035f83015261287781846127d2565b905092915050565b5f6020828403121561289457612893612203565b5b5f6128a184828501612251565b91505092915050565b6128b381612265565b82525050565b5f6080820190506128cc5f8301876128aa565b6128d960208301866128aa565b6128e660408301856128aa565b6128f360608301846128aa565b95945050505050565b5f60208201905061290f5f8301846128aa565b92915050565b5f5f5f5f5f5f6080878903121561292f5761292e612203565b5b5f87013567ffffffffffffffff81111561294c5761294b612207565b5b61295889828a01612368565b9650965050602087013567ffffffffffffffff81111561297b5761297a612207565b5b61298789828a01612368565b9450945050604061299a89828a01612284565b92505060606129ab89828a016123de565b9150509295509295509295565b5f5f604083850312156129ce576129cd612203565b5b5f6129db85828601612251565b92505060206129ec85828601612284565b9150509250929050565b6129ff816123bd565b82525050565b5f602082019050612a185f8301846129f6565b92915050565b612a278161222a565b82525050565b5f602082019050612a405f830184612a1e565b92915050565b5f612a5082612312565b9050919050565b612a6081612a46565b82525050565b5f602082019050612a795f830184612a57565b92915050565b5f82825260208201905092915050565b5f612a9982612570565b612aa38185612a7f565b9350612ab381856020860161258a565b612abc81612598565b840191505092915050565b5f60c082019050612ada5f8301896128aa565b8181036020830152612aec8188612a8f565b90508181036040830152612b008187612a8f565b9050612b0f60608301866128aa565b612b1c60808301856129f6565b612b2960a08301846129f6565b979650505050505050565b7f51756573744d616e616765723a20746f207a65726f00000000000000000000005f82015250565b5f612b68601583612a7f565b9150612b7382612b34565b602082019050919050565b5f6020820190508181035f830152612b9581612b5c565b9050919050565b7f51756573744d616e616765723a2063616e6e6f74207265636f766572205850205f8201527f746f6b656e000000000000000000000000000000000000000000000000000000602082015250565b5f612bf6602583612a7f565b9150612c0182612b9c565b604082019050919050565b5f6020820190508181035f830152612c2381612bea565b9050919050565b5f604082019050612c3d5f830185612a1e565b612c4a60208301846128aa565b9392505050565b5f81519050612c5f816123c8565b92915050565b5f60208284031215612c7a57612c79612203565b5b5f612c8784828501612c51565b91505092915050565b7f51756573744d616e616765723a207472616e73666572206661696c65640000005f82015250565b5f612cc4601d83612a7f565b9150612ccf82612c90565b602082019050919050565b5f6020820190508181035f830152612cf181612cb8565b9050919050565b7f51756573744d616e616765723a20717565737420646f6573206e6f74206578695f8201527f7374000000000000000000000000000000000000000000000000000000000000602082015250565b5f612d52602283612a7f565b9150612d5d82612cf8565b604082019050919050565b5f6020820190508181035f830152612d7f81612d46565b9050919050565b7f51756573744d616e616765723a207469746c6520656d707479000000000000005f82015250565b5f612dba601983612a7f565b9150612dc582612d86565b602082019050919050565b5f6020820190508181035f830152612de781612dae565b9050919050565b7f51756573744d616e616765723a20726577617264207a65726f000000000000005f82015250565b5f612e22601983612a7f565b9150612e2d82612dee565b602082019050919050565b5f6020820190508181035f830152612e4f81612e16565b9050919050565b5f82905092915050565b7f4e487b71000000000000000000000000000000000000000000000000000000005f52604160045260245ffd5b7f4e487b71000000000000000000000000000000000000000000000000000000005f52602260045260245ffd5b5f6002820490506001821680612ed157607f821691505b602082108103612ee457612ee3612e8d565b5b50919050565b5f819050815f5260205f209050919050565b5f6020601f8301049050919050565b5f82821b905092915050565b5f60088302612f467fffffffffffffffffffffffffffffffffffffffffffffffffffffffffffffffff82612f0b565b612f508683612f0b565b95508019841693508086168417925050509392505050565b5f612f82612f7d612f7884612265565b6122e8565b612265565b9050919050565b5f819050919050565b612f9b83612f68565b612faf612fa782612f89565b848454612f17565b825550505050565b5f5f905090565b612fc6612fb7565b612fd1818484612f92565b505050565b5b81811015612ff457612fe95f82612fbe565b600181019050612fd7565b5050565b601f8211156130395761300a81612eea565b61301384612efc565b81016020851015613022578190505b61303661302e85612efc565b830182612fd6565b50505b505050565b5f82821c905092915050565b5f6130595f198460080261303e565b1980831691505092915050565b5f613071838361304a565b9150826002028217905092915050565b61308b8383612e56565b67ffffffffffffffff8111156130a4576130a3612e60565b5b6130ae8254612eba565b6130b9828285612ff8565b5f601f8311600181146130e6575f84156130d4578287013590505b6130de8582613066565b865550613145565b601f1984166130f486612eea565b5f5b8281101561311b578489013582556001820191506020850194506020810190506130f6565b868310156131385784890135613134601f89168261304a565b8355505b6001600288020188555050505b50505050505050565b828183375f83830152505050565b5f6131678385612a7f565b935061317483858461314e565b61317d83612598565b840190509392505050565b5f6080820190508181035f8301526131a181878961315c565b90506131b060208301866128aa565b6131bd60408301856129f6565b6131ca60608301846129f6565b9695505050505050565b5f81546131e081612eba565b6131ea8186612a7f565b9450600182165f8114613204576001811461321a5761324c565b60ff19831686528115156020028601935061324c565b61322385612eea565b5f5b8381101561324457815481890152600182019150602081019050613225565b808801955050505b50505092915050565b5f6080820190508181035f83015261326d81876131d4565b905061327c60208301866128aa565b61328960408301856129f6565b61329660608301846129f6565b95945050505050565b7f51756573744d616e616765723a207374617274206d757374206265203e2030005f82015250565b5f6132d3601f83612a7f565b91506132de8261329f565b602082019050919050565b5f6020820190508181035f830152613300816132c7565b9050919050565b7f51756573744d616e616765723a20656e64203c207374617274000000000000005f82015250565b5f61333b601983612a7f565b915061334682613307565b602082019050919050565b5f6020820190508181035f8301526133688161332f565b9050919050565b7f4e487b71000000000000000000000000000000000000000000000000000000005f52601160045260245ffd5b5f6133a682612265565b91506133b183612265565b92508282039050818111156133c9576133c861336f565b5b92915050565b5f6133d982612265565b91507fffffffffffffffffffffffffffffffffffffffffffffffffffffffffffffffff820361340b5761340a61336f565b5b600182019050919050565b7f4e487b71000000000000000000000000000000000000000000000000000000005f52603260045260245ffd5b5f815190506134518161226e565b92915050565b5f6020828403121561346c5761346b612203565b5b5f61347984828501613443565b91505092915050565b7f51756573744d616e616765723a20717565737420696e616374697665000000005f82015250565b5f6134b6601c83612a7f565b91506134c182613482565b602082019050919050565b5f6020820190508181035f8301526134e3816134aa565b9050919050565b5f6134f482612265565b91506134ff83612265565b92508282019050808211156135175761351661336f565b5b92915050565b5f6080820190506135305f830187612a1e565b61353d60208301866128aa565b61354a60408301856128aa565b61355760608301846128aa565b95945050505050565b61356982612570565b67ffffffffffffffff81111561358257613581612e60565b5b61358c8254612eba565b613597828285612ff8565b5f60209050601f8311600181146135c8575f84156135b6578287015190505b6135c08582613066565b865550613627565b601f1984166135d686612eea565b5f5b828110156135fd578489015182556001820191506020850194506020810190506135d8565b8683101561361a5784890151613616601f89168261304a565b8355505b6001600288020188555050505b505050505050565b5f6060820190508181035f83015261364881868861315c565b905061365760208301856128aa565b61366460408301846129f6565b95945050505050565b7f51756573744d616e616765723a20626164676573207a65726f000000000000005f82015250565b5f6136a1601983612a7f565b91506136ac8261366d565b602082019050919050565b5f6020820190508181035f8301526136ce81613695565b9050919050565b7f51756573744d616e616765723a20787020746f6b656e207a65726f00000000005f82015250565b5f613709601b83612a7f565b9150613714826136d5565b602082019050919050565b5f6020820190508181035f830152613736816136fd565b9050919050565b7f4f776e61626c653a206e6577206f776e657220697320746865207a65726f20615f8201527f6464726573730000000000000000000000000000000000000000000000000000602082015250565b5f613797602683612a7f565b91506137a28261373d565b604082019050919050565b5f6020820190508181035f8301526137c48161378b565b9050919050565b7f4f776e61626c653a2063616c6c6572206973206e6f7420746865206f776e65725f82015250565b5f6137ff602083612a7f565b915061380a826137cb565b602082019050919050565b5f6020820190508181035f83015261382c816137f3565b9050919050565b7f5265656e7472616e637947756172643a207265656e7472616e742063616c6c005f82015250565b5f613867601f83612a7f565b915061387282613833565b602082019050919050565b5f6020820190508181035f8301526138948161385b565b9050919050565b7f4e487b71000000000000000000000000000000000000000000000000000000005f52601260045260245ffd5b5f6138d282612265565b91506138dd83612265565b9250826138ed576138ec61389b565b5b828204905092915050565b7f51756573744d616e616765723a20616c726561647920636865636b656420696e5f8201527f20746f6461790000000000000000000000000000000000000000000000000000602082015250565b5f613952602683612a7f565b915061395d826138f8565b604082019050919050565b5f6020820190508181035f83015261397f81613946565b9050919050565b5f6040820190506139995f8301856128aa565b6139a660208301846128aa565b9392505050565b7f51756573744d616e616765723a20717565737420616c726561647920636f6d705f8201527f6c65746564000000000000000000000000000000000000000000000000000000602082015250565b5f613a07602583612a7f565b9150613a12826139ad565b604082019050919050565b5f6020820190508181035f830152613a34816139fb565b905091905056fea26469706673582212206513a738044aa34999feca76d221091481e4f4d3a76e895712fe75f34e3ca0b864736f6c634300081e0033","linkReferences":{}},"methodIdentifiers":{"badges()":"1a646240","completeQuest(uint256)":"528be0a9","completedOnce(address,uint256)":"843e6af9","createQuest(string,string,uint256,bool)":"6858de27","currentStreak(address)":"5c45f739","getQuest(uint256)":"49f86f34","getQuestsInRange(uint256,uint256)":"2295b60a","getUserStats(address)":"4e43603a","lastDailyCheckinDay(address)":"67de7854","nextQuestId()":"d638c983","owner()":"8da5cb5b","quests(uint256)":"e085f980","recoverERC20(address,address,uint256)":"1171bda9","recoverETH(address,uint256)":"3e0c0629","renounceOwnership()":"715018a6","setBadgesContract(address)":"81322060","setQuestActive(uint256,bool)":"1c329337","setXPToken(address)":"92d14ea0","totalCompleted(address)":"932cc057","transferOwnership(address)":"f2fde38b","updateQuest(uint256,string,string,uint256,bool,bool)":"1bbe2022","xpToken()":"ae5014b1"},"id":35}