{"abi":[{"type":"constructor","inputs":[{"name":"name_","type":"string","internalType":"string"},{"name":"symbol_","type":"string","internalType":"string"}],"stateMutability":"nonpayable"},{"type":"function","name":"approve","inputs":[{"name":"to","type":"address","internalType":"address"},{"name":"tokenId","type":"uint256","internalType":"uint256"}],"outputs":[],"stateMutability":"nonpayable"},{"type":"function","name":"awardBadges","inputs":[{"name":"user","type":"address","internalType":"address"},{"name":"streak","type":"uint256","internalType":"uint256"},{"name":"totalCompleted","type":"uint256","internalType":"uint256"},{"name":"userXP","type":"uint256","internalType":"uint256"}],"outputs":[],"stateMutability":"nonpayable"},{"type":"function","name":"badgeRules","inputs":[{"name":"","type":"uint8","internalType":"enum QuestBadges.BadgeType"}],"outputs":[{"name":"active","type":"bool","internalType":"bool"},{"name":"xpThreshold","type":"uint256","internalType":"uint256"},{"name":"streakThreshold","type":"uint256","internalType":"uint256"},{"name":"totalQuestsThreshold","type":"uint256","internalType":"uint256"},{"name":"metadataURI","type":"string","internalType":"string"}],"stateMutability":"view"},{"type":"function","name":"badgeTypeOfTokenId","inputs":[{"name":"","type":"uint256","internalType":"uint256"}],"outputs":[{"name":"","type":"uint8","internalType":"enum QuestBadges.BadgeType"}],"stateMutability":"view"},{"type":"function","name":"balanceOf","inputs":[{"name":"owner","type":"address","internalType":"address"}],"outputs":[{"name":"","type":"uint256","internalType":"uint256"}],"stateMutability":"view"},{"type":"function","name":"getApproved","inputs":[{"name":"tokenId","type":"uint256","internalType":"uint256"}],"outputs":[{"name":"","type":"address","internalType":"address"}],"stateMutability":"view"},{"type":"function","name":"hasBadge","inputs":[{"name":"","type":"address","internalType":"address"},{"name":"","type":"uint8","internalType":"enum QuestBadges.BadgeType"}],"outputs":[{"name":"","type":"bool","internalType":"bool"}],"stateMutability":"view"},{"type":"function","name":"isApprovedForAll","inputs":[{"name":"owner","type":"address","internalType":"address"},{"name":"operator","type":"address","internalType":"address"}],"outputs":[{"name":"","type":"bool","internalType":"bool"}],"stateMutability":"view"},{"type":"function","name":"name","inputs":[],"outputs":[{"name":"","type":"string","internalType":"string"}],"stateMutability":"view"},{"type":"function","name":"owner","inputs":[],"outputs":[{"name":"","type":"address","internalType":"address"}],"stateMutability":"view"},{"type":"function","name":"ownerOf","inputs":[{"name":"tokenId","type":"uint256","internalType":"uint256"}],"outputs":[{"name":"","type":"address","internalType":"address"}],"stateMutability":"view"},{"type":"function","name":"questManager","inputs":[],"outputs":[{"name":"","type":"address","internalType":"address"}],"stateMutability":"view"},{"type":"function","name":"renounceOwnership","inputs":[],"outputs":[],"stateMutability":"nonpayable"},{"type":"function","name":"safeTransferFrom","inputs":[{"name":"from","type":"address","internalType":"address"},{"name":"to","type":"address","internalType":"address"},{"name":"tokenId","type":"uint256","internalType":"uint256"}],"outputs":[],"stateMutability":"nonpayable"},{"type":"function","name":"safeTransferFrom","inputs":[{"name":"from","type":"address","internalType":"address"},{"name":"to","type":"address","internalType":"address"},{"name":"tokenId","type":"uint256","internalType":"uint256"},{"name":"data","type":"bytes","internalType":"bytes"}],"outputs":[],"stateMutability":"nonpayable"},{"type":"function","name":"setApprovalForAll","inputs":[{"name":"operator","type":"address","internalType":"address"},{"name":"approved","type":"bool","internalType":"bool"}],"outputs":[],"stateMutability":"nonpayable"},{"type":"function","name":"setBadgeRule","inputs":[{"name":"badgeType","type":"uint8","internalType":"enum QuestBadges.BadgeType"},{"name":"active","type":"bool","internalType":"bool"},{"name":"xpThreshold","type":"uint256","internalType":"uint256"},{"name":"streakThreshold","type":"uint256","internalType":"uint256"},{"name":"totalQuestsThreshold","type":"uint256","internalType":"uint256"},{"name":"metadataURI","type":"string","internalType":"string"}],"outputs":[],"stateMutability":"nonpayable"},{"type":"function","name":"setQuestManager","inputs":[{"name":"_questManager","type":"address","internalType":"address"}],"outputs":[],"stateMutability":"nonpayable"},{"type":"function","name":"supportsInterface","inputs":[{"name":"interfaceId","type":"bytes4","internalType":"bytes4"}],"outputs":[{"name":"","type":"bool","internalType":"bool"}],"stateMutability":"view"},{"type":"function","name":"symbol","inputs":[],"outputs":[{"name":"","type":"string","internalType":"string"}],"stateMutability":"view"},{"type":"function","name":"tokenURI","inputs":[{"name":"tokenId","type":"uint256","internalType":"uint256"}],"outputs":[{"name":"","type":"string","internalType":"string"}],"stateMutability":"view"},{"type":"function","name":"totalSupply","inputs":[],"outputs":[{"name":"","type":"uint256","internalType":"uint256"}],"stateMutability":"view"},{"type":"function","name":"transferFrom","inputs":[{"name":"from","type":"address","internalType":"address"},{"name":"to","type":"address","internalType":"address"},{"name":"tokenId","type":"uint256","internalType":"uint256"}],"outputs":[],"stateMutability":"nonpayable"},{"type":"function","name":"transferOwnership","inputs":[{"name":"newOwner","type":"address","internalType":"address"}],"outputs":[],"stateMutability":"nonpayable"},{"type":"event","name":"Approval","inputs":[{"name":"owner","type":"address","indexed":true,"internalType":"address"},{"name":"approved","type":"address","indexed":true,"internalType":"address"},{"name":"tokenId","type":"uint256","indexed":true,"internalType":"uint256"}],"anonymous":false},{"type":"event","name":"ApprovalForAll","inputs":[{"name":"owner","type":"address","indexed":true,"internalType":"address"},{"name":"operator","type":"address","indexed":true,"internalType":"address"},{"name":"approved","type":"bool","indexed":false,"internalType":"bool"}],"anonymous":false},{"type":"event","name":"BadgeMinted","inputs":[{"name":"user","type":"address","indexed":true,"internalType":"address"},{"name":"tokenId","type":"uint256","indexed":true,"internalType":"uint256"},{"name":"badgeType","type":"uint8","indexed":true,"internalType":"enum QuestBadges.BadgeType"}],"anonymous":false},{"type":"event","name":"BadgeRuleUpdated","inputs":[{"name":"badgeType","type":"uint8","indexed":true,"internalType":"enum QuestBadges.BadgeType"},{"name":"active","type":"bool","indexed":false,"internalType":"bool"},{"name":"xpThreshold","type":"uint256","indexed":false,"internalType":"uint256"},{"name":"streakThreshold","type":"uint256","indexed":false,"internalType":"uint256"},{"name":"totalQuestsThreshold","type":"uint256","indexed":false,"internalType":"uint256"},{"name":"metadataURI","type":"string","indexed":false,"internalType":"string"}],"anonymous":false},{"type":"event","name":"BatchMetadataUpdate","inputs":[{"name":"_fromTokenId","type":"uint256","indexed":false,"internalType":"uint256"},{"name":"_toTokenId","type":"uint256","indexed":false,"internalType":"uint256"}],"anonymous":false},{"type":"event","name":"MetadataUpdate","inputs":[{"name":"_tokenId","type":"uint256","indexed":false,"internalType":"uint256"}],"anonymous":false},{"type":"event","name":"OwnershipTransferred","inputs":[{"name":"previousOwner","type":"address","indexed":true,"internalType":"address"},{"name":"newOwner","type":"address","indexed":true,"internalType":"address"}],"anonymous":false},{"type":"event","name":"QuestManagerUpdated","inputs":[{"name":"newManager","type":"address","indexed":true,"internalType":"address"}],"anonymous":false},{"type":"event","name":"Transfer","inputs":[{"name":"from","type":"address","indexed":true,"internalType":"address"},{"name":"to","type":"address","indexed":true,"internalType":"address"},{"name":"tokenId","type":"uint256","indexed":true,"internalType":"uint256"}],"anonymous":false}],"bytecode":{"object":"0x608060405234801561000f575f5ffd5b506040516140773803806140778339818101604052810190610031919061028e565b8181815f90816100419190610514565b5080600190816100519190610514565b50505061007061006561007760201b60201c565b61007e60201b60201c565b50506105e3565b5f33905090565b5f60075f9054906101000a900473ffffffffffffffffffffffffffffffffffffffff1690508160075f6101000a81548173ffffffffffffffffffffffffffffffffffffffff021916908373ffffffffffffffffffffffffffffffffffffffff1602179055508173ffffffffffffffffffffffffffffffffffffffff168173ffffffffffffffffffffffffffffffffffffffff167f8be0079c531659141344cd1fd0a4f28419497f9722a3daafe3b4186f6b6457e060405160405180910390a35050565b5f604051905090565b5f5ffd5b5f5ffd5b5f5ffd5b5f5ffd5b5f601f19601f8301169050919050565b7f4e487b71000000000000000000000000000000000000000000000000000000005f52604160045260245ffd5b6101a08261015a565b810181811067ffffffffffffffff821117156101bf576101be61016a565b5b80604052505050565b5f6101d1610141565b90506101dd8282610197565b919050565b5f67ffffffffffffffff8211156101fc576101fb61016a565b5b6102058261015a565b9050602081019050919050565b8281835e5f83830152505050565b5f61023261022d846101e2565b6101c8565b90508281526020810184848401111561024e5761024d610156565b5b610259848285610212565b509392505050565b5f82601f83011261027557610274610152565b5b8151610285848260208601610220565b91505092915050565b5f5f604083850312156102a4576102a361014a565b5b5f83015167ffffffffffffffff8111156102c1576102c061014e565b5b6102cd85828601610261565b925050602083015167ffffffffffffffff8111156102ee576102ed61014e565b5b6102fa85828601610261565b9150509250929050565b5f81519050919050565b7f4e487b71000000000000000000000000000000000000000000000000000000005f52602260045260245ffd5b5f600282049050600182168061035257607f821691505b6020821081036103655761036461030e565b5b50919050565b5f819050815f5260205f209050919050565b5f6020601f8301049050919050565b5f82821b905092915050565b5f600883026103c77fffffffffffffffffffffffffffffffffffffffffffffffffffffffffffffffff8261038c565b6103d1868361038c565b95508019841693508086168417925050509392505050565b5f819050919050565b5f819050919050565b5f61041561041061040b846103e9565b6103f2565b6103e9565b9050919050565b5f819050919050565b61042e836103fb565b61044261043a8261041c565b848454610398565b825550505050565b5f5f905090565b61045961044a565b610464818484610425565b505050565b5b818110156104875761047c5f82610451565b60018101905061046a565b5050565b601f8211156104cc5761049d8161036b565b6104a68461037d565b810160208510156104b5578190505b6104c96104c18561037d565b830182610469565b50505b505050565b5f82821c905092915050565b5f6104ec5f19846008026104d1565b1980831691505092915050565b5f61050483836104dd565b9150826002028217905092915050565b61051d82610304565b67ffffffffffffffff8111156105365761053561016a565b5b610540825461033b565b61054b82828561048b565b5f60209050601f83116001811461057c575f841561056a578287015190505b61057485826104f9565b8655506105db565b601f19841661058a8661036b565b5f5b828110156105b15784890151825560018201915060208501945060208101905061058c565b868310156105ce57848901516105ca601f8916826104dd565b8355505b6001600288020188555050505b505050505050565b613a87806105f05f395ff3fe608060405234801561000f575f5ffd5b5060043610610156575f3560e01c80636352211e116100c1578063b88d4fde1161007a578063b88d4fde146103c4578063c87b56dd146103e0578063dc1627eb14610410578063e985e9c51461042e578063f2fde38b1461045e578063fe43ef1b1461047a57610156565b80636352211e1461030257806370a0823114610332578063715018a6146103625780638da5cb5b1461036c57806395d89b411461038a578063a22cb465146103a857610156565b80631aa3fd20116101135780631aa3fd201461024657806323b872dd146102625780633168e65b1461027e5780633af0c6881461029a57806342842e0e146102ca578063625cdead146102e657610156565b806301ffc9a71461015a57806306fdde031461018a578063081812fc146101a8578063095ea7b3146101d85780630dfc5f83146101f457806318160ddd14610228575b5f5ffd5b610174600480360381019061016f9190612580565b6104aa565b60405161018191906125c5565b60405180910390f35b61019261050a565b60405161019f919061264e565b60405180910390f35b6101c260048036038101906101bd91906126a1565b610599565b6040516101cf919061270b565b60405180910390f35b6101f260048036038101906101ed919061274e565b6105db565b005b61020e600480360381019061020991906127af565b6106f1565b60405161021f9594939291906127e9565b60405180910390f35b6102306107b5565b60405161023d9190612841565b60405180910390f35b610260600480360381019061025b919061285a565b6107c5565b005b61027c600480360381019061027791906128be565b6108f1565b005b61029860048036038101906102939190612999565b610951565b005b6102b460048036038101906102af9190612a43565b610aab565b6040516102c191906125c5565b60405180910390f35b6102e460048036038101906102df91906128be565b610ad5565b005b61030060048036038101906102fb9190612a81565b610af4565b005b61031c600480360381019061031791906126a1565b610bf0565b604051610329919061270b565b60405180910390f35b61034c60048036038101906103479190612a81565b610c74565b6040516103599190612841565b60405180910390f35b61036a610d28565b005b610374610d3b565b604051610381919061270b565b60405180910390f35b610392610d63565b60405161039f919061264e565b60405180910390f35b6103c260048036038101906103bd9190612aac565b610df3565b005b6103de60048036038101906103d99190612c12565b610e09565b005b6103fa60048036038101906103f591906126a1565b610e6b565b604051610407919061264e565b60405180910390f35b610418610f75565b604051610425919061270b565b60405180910390f35b61044860048036038101906104439190612c92565b610f9a565b60405161045591906125c5565b60405180910390f35b61047860048036038101906104739190612a81565b611028565b005b610494600480360381019061048f91906126a1565b6110aa565b6040516104a19190612d43565b60405180910390f35b5f634906490660e01b7bffffffffffffffffffffffffffffffffffffffffffffffffffffffff1916827bffffffffffffffffffffffffffffffffffffffffffffffffffffffff191614806105035750610502826110c7565b5b9050919050565b60605f805461051890612d89565b80601f016020809104026020016040519081016040528092919081815260200182805461054490612d89565b801561058f5780601f106105665761010080835404028352916020019161058f565b820191905f5260205f20905b81548152906001019060200180831161057257829003601f168201915b5050505050905090565b5f6105a3826111a8565b60045f8381526020019081526020015f205f9054906101000a900473ffffffffffffffffffffffffffffffffffffffff169050919050565b5f6105e582610bf0565b90508073ffffffffffffffffffffffffffffffffffffffff168373ffffffffffffffffffffffffffffffffffffffff1603610655576040517f08c379a000000000000000000000000000000000000000000000000000000000815260040161064c90612e29565b60405180910390fd5b8073ffffffffffffffffffffffffffffffffffffffff166106746111f3565b73ffffffffffffffffffffffffffffffffffffffff1614806106a357506106a28161069d6111f3565b610f9a565b5b6106e2576040517f08c379a00000000000000000000000000000000000000000000000000000000081526004016106d990612eb7565b60405180910390fd5b6106ec83836111fa565b505050565b6008602052805f5260405f205f91509050805f015f9054906101000a900460ff169080600101549080600201549080600301549080600401805461073490612d89565b80601f016020809104026020016040519081016040528092919081815260200182805461076090612d89565b80156107ab5780601f10610782576101008083540402835291602001916107ab565b820191905f5260205f20905b81548152906001019060200180831161078e57829003601f168201915b5050505050905085565b5f6107c0600b6112b0565b905090565b600c5f9054906101000a900473ffffffffffffffffffffffffffffffffffffffff1673ffffffffffffffffffffffffffffffffffffffff163373ffffffffffffffffffffffffffffffffffffffff1614610854576040517f08c379a000000000000000000000000000000000000000000000000000000000815260040161084b90612f1f565b60405180910390fd5b5f73ffffffffffffffffffffffffffffffffffffffff168473ffffffffffffffffffffffffffffffffffffffff16036108c2576040517f08c379a00000000000000000000000000000000000000000000000000000000081526004016108b990612f87565b60405180910390fd5b6108cf845f8585856112bc565b6108dd8460018585856112bc565b6108eb8460028585856112bc565b50505050565b6109026108fc6111f3565b826114dc565b610941576040517f08c379a000000000000000000000000000000000000000000000000000000000815260040161093890613015565b60405180910390fd5b61094c838383611570565b505050565b61095961185c565b6040518060a00160405280871515815260200186815260200185815260200184815260200183838080601f0160208091040260200160405190810160405280939291908181526020018383808284375f81840152601f19601f8201169050808301925050505050505081525060085f8960028111156109db576109da612cd0565b5b60028111156109ed576109ec612cd0565b5b81526020019081526020015f205f820151815f015f6101000a81548160ff0219169083151502179055506020820151816001015560408201518160020155606082015181600301556080820151816004019081610a4a91906131d3565b50905050866002811115610a6157610a60612cd0565b5b7f6c0072678ed09f31d57a1171fd07ccad1da7de0a70ad5a2435166d2aa9577ae0878787878787604051610a9a969594939291906132ce565b60405180910390a250505050505050565b6009602052815f5260405f20602052805f5260405f205f915091509054906101000a900460ff1681565b610aef83838360405180602001604052805f815250610e09565b505050565b610afc61185c565b5f73ffffffffffffffffffffffffffffffffffffffff168173ffffffffffffffffffffffffffffffffffffffff1603610b6a576040517f08c379a0000000000000000000000000000000000000000000000000000000008152600401610b6190613372565b60405180910390fd5b80600c5f6101000a81548173ffffffffffffffffffffffffffffffffffffffff021916908373ffffffffffffffffffffffffffffffffffffffff1602179055508073ffffffffffffffffffffffffffffffffffffffff167f23d064e8743c7b6ccc2901ff570767b1a6aa908e7c01ef4af625ea7ecae965ba60405160405180910390a250565b5f5f610bfb836118da565b90505f73ffffffffffffffffffffffffffffffffffffffff168173ffffffffffffffffffffffffffffffffffffffff1603610c6b576040517f08c379a0000000000000000000000000000000000000000000000000000000008152600401610c62906133da565b60405180910390fd5b80915050919050565b5f5f73ffffffffffffffffffffffffffffffffffffffff168273ffffffffffffffffffffffffffffffffffffffff1603610ce3576040517f08c379a0000000000000000000000000000000000000000000000000000000008152600401610cda90613468565b60405180910390fd5b60035f8373ffffffffffffffffffffffffffffffffffffffff1673ffffffffffffffffffffffffffffffffffffffff1681526020019081526020015f20549050919050565b610d3061185c565b610d395f611913565b565b5f60075f9054906101000a900473ffffffffffffffffffffffffffffffffffffffff16905090565b606060018054610d7290612d89565b80601f0160208091040260200160405190810160405280929190818152602001828054610d9e90612d89565b8015610de95780601f10610dc057610100808354040283529160200191610de9565b820191905f5260205f20905b815481529060010190602001808311610dcc57829003601f168201915b5050505050905090565b610e05610dfe6111f3565b83836119d6565b5050565b610e1a610e146111f3565b836114dc565b610e59576040517f08c379a0000000000000000000000000000000000000000000000000000000008152600401610e5090613015565b60405180910390fd5b610e6584848484611b3d565b50505050565b6060610e76826111a8565b5f60065f8481526020019081526020015f208054610e9390612d89565b80601f0160208091040260200160405190810160405280929190818152602001828054610ebf90612d89565b8015610f0a5780601f10610ee157610100808354040283529160200191610f0a565b820191905f5260205f20905b815481529060010190602001808311610eed57829003601f168201915b505050505090505f610f1a611b99565b90505f815103610f2e578192505050610f70565b5f82511115610f62578082604051602001610f4a9291906134c0565b60405160208183030381529060405292505050610f70565b610f6b84611baf565b925050505b919050565b600c5f9054906101000a900473ffffffffffffffffffffffffffffffffffffffff1681565b5f60055f8473ffffffffffffffffffffffffffffffffffffffff1673ffffffffffffffffffffffffffffffffffffffff1681526020019081526020015f205f8373ffffffffffffffffffffffffffffffffffffffff1673ffffffffffffffffffffffffffffffffffffffff1681526020019081526020015f205f9054906101000a900460ff16905092915050565b61103061185c565b5f73ffffffffffffffffffffffffffffffffffffffff168173ffffffffffffffffffffffffffffffffffffffff160361109e576040517f08c379a000000000000000000000000000000000000000000000000000000000815260040161109590613553565b60405180910390fd5b6110a781611913565b50565b600a602052805f5260405f205f915054906101000a900460ff1681565b5f7f80ac58cd000000000000000000000000000000000000000000000000000000007bffffffffffffffffffffffffffffffffffffffffffffffffffffffff1916827bffffffffffffffffffffffffffffffffffffffffffffffffffffffff1916148061119157507f5b5e139f000000000000000000000000000000000000000000000000000000007bffffffffffffffffffffffffffffffffffffffffffffffffffffffff1916827bffffffffffffffffffffffffffffffffffffffffffffffffffffffff1916145b806111a157506111a082611c14565b5b9050919050565b6111b181611c7d565b6111f0576040517f08c379a00000000000000000000000000000000000000000000000000000000081526004016111e7906133da565b60405180910390fd5b50565b5f33905090565b8160045f8381526020019081526020015f205f6101000a81548173ffffffffffffffffffffffffffffffffffffffff021916908373ffffffffffffffffffffffffffffffffffffffff160217905550808273ffffffffffffffffffffffffffffffffffffffff1661126a83610bf0565b73ffffffffffffffffffffffffffffffffffffffff167f8c5be1e5ebec7d5bd14f71427d1e84f3dd0314c0f7b2291e5b200ac8c7c3b92560405160405180910390a45050565b5f815f01549050919050565b60095f8673ffffffffffffffffffffffffffffffffffffffff1673ffffffffffffffffffffffffffffffffffffffff1681526020019081526020015f205f85600281111561130d5761130c612cd0565b5b600281111561131f5761131e612cd0565b5b81526020019081526020015f205f9054906101000a900460ff166114d5575f60085f86600281111561135457611353612cd0565b5b600281111561136657611365612cd0565b5b81526020019081526020015f206040518060a00160405290815f82015f9054906101000a900460ff161515151581526020016001820154815260200160028201548152602001600382015481526020016004820180546113c590612d89565b80601f01602080910402602001604051908101604052809291908181526020018280546113f190612d89565b801561143c5780601f106114135761010080835404028352916020019161143c565b820191905f5260205f20905b81548152906001019060200180831161141f57829003601f168201915b5050505050815250509050805f015161145557506114d5565b5f600190505f82604001511180156114705750816040015185105b15611479575f90505b5f826060015111801561148f5750816060015184105b15611498575f90505b5f82602001511180156114ae5750816020015183105b156114b7575f90505b806114c35750506114d5565b6114d287878460800151611cbd565b50505b5050505050565b5f5f6114e783610bf0565b90508073ffffffffffffffffffffffffffffffffffffffff168473ffffffffffffffffffffffffffffffffffffffff16148061152957506115288185610f9a565b5b8061156757508373ffffffffffffffffffffffffffffffffffffffff1661154f84610599565b73ffffffffffffffffffffffffffffffffffffffff16145b91505092915050565b8273ffffffffffffffffffffffffffffffffffffffff1661159082610bf0565b73ffffffffffffffffffffffffffffffffffffffff16146115e6576040517f08c379a00000000000000000000000000000000000000000000000000000000081526004016115dd906135e1565b60405180910390fd5b5f73ffffffffffffffffffffffffffffffffffffffff168273ffffffffffffffffffffffffffffffffffffffff1603611654576040517f08c379a000000000000000000000000000000000000000000000000000000000815260040161164b9061366f565b60405180910390fd5b6116618383836001611e0f565b8273ffffffffffffffffffffffffffffffffffffffff1661168182610bf0565b73ffffffffffffffffffffffffffffffffffffffff16146116d7576040517f08c379a00000000000000000000000000000000000000000000000000000000081526004016116ce906135e1565b60405180910390fd5b60045f8281526020019081526020015f205f6101000a81549073ffffffffffffffffffffffffffffffffffffffff0219169055600160035f8573ffffffffffffffffffffffffffffffffffffffff1673ffffffffffffffffffffffffffffffffffffffff1681526020019081526020015f205f8282540392505081905550600160035f8473ffffffffffffffffffffffffffffffffffffffff1673ffffffffffffffffffffffffffffffffffffffff1681526020019081526020015f205f82825401925050819055508160025f8381526020019081526020015f205f6101000a81548173ffffffffffffffffffffffffffffffffffffffff021916908373ffffffffffffffffffffffffffffffffffffffff160217905550808273ffffffffffffffffffffffffffffffffffffffff168473ffffffffffffffffffffffffffffffffffffffff167fddf252ad1be2c89b69c2b068fc378daa952ba7f163c4a11628f55a4df523b3ef60405160405180910390a46118578383836001611e15565b505050565b6118646111f3565b73ffffffffffffffffffffffffffffffffffffffff16611882610d3b565b73ffffffffffffffffffffffffffffffffffffffff16146118d8576040517f08c379a00000000000000000000000000000000000000000000000000000000081526004016118cf906136d7565b60405180910390fd5b565b5f60025f8381526020019081526020015f205f9054906101000a900473ffffffffffffffffffffffffffffffffffffffff169050919050565b5f60075f9054906101000a900473ffffffffffffffffffffffffffffffffffffffff1690508160075f6101000a81548173ffffffffffffffffffffffffffffffffffffffff021916908373ffffffffffffffffffffffffffffffffffffffff1602179055508173ffffffffffffffffffffffffffffffffffffffff168173ffffffffffffffffffffffffffffffffffffffff167f8be0079c531659141344cd1fd0a4f28419497f9722a3daafe3b4186f6b6457e060405160405180910390a35050565b8173ffffffffffffffffffffffffffffffffffffffff168373ffffffffffffffffffffffffffffffffffffffff1603611a44576040517f08c379a0000000000000000000000000000000000000000000000000000000008152600401611a3b9061373f565b60405180910390fd5b8060055f8573ffffffffffffffffffffffffffffffffffffffff1673ffffffffffffffffffffffffffffffffffffffff1681526020019081526020015f205f8473ffffffffffffffffffffffffffffffffffffffff1673ffffffffffffffffffffffffffffffffffffffff1681526020019081526020015f205f6101000a81548160ff0219169083151502179055508173ffffffffffffffffffffffffffffffffffffffff168373ffffffffffffffffffffffffffffffffffffffff167f17307eab39ab6107e8899845ad3d59bd9653f200f220920489ca2b5937696c3183604051611b3091906125c5565b60405180910390a3505050565b611b48848484611570565b611b5484848484611e1b565b611b93576040517f08c379a0000000000000000000000000000000000000000000000000000000008152600401611b8a906137cd565b60405180910390fd5b50505050565b606060405180602001604052805f815250905090565b6060611bba826111a8565b5f611bc3611b99565b90505f815111611be15760405180602001604052805f815250611c0c565b80611beb84611f9d565b604051602001611bfc9291906134c0565b6040516020818303038152906040525b915050919050565b5f7f01ffc9a7000000000000000000000000000000000000000000000000000000007bffffffffffffffffffffffffffffffffffffffffffffffffffffffff1916827bffffffffffffffffffffffffffffffffffffffffffffffffffffffff1916149050919050565b5f5f73ffffffffffffffffffffffffffffffffffffffff16611c9e836118da565b73ffffffffffffffffffffffffffffffffffffffff1614159050919050565b611cc7600b612067565b5f611cd2600b6112b0565b9050600160095f8673ffffffffffffffffffffffffffffffffffffffff1673ffffffffffffffffffffffffffffffffffffffff1681526020019081526020015f205f856002811115611d2757611d26612cd0565b5b6002811115611d3957611d38612cd0565b5b81526020019081526020015f205f6101000a81548160ff02191690831515021790555082600a5f8381526020019081526020015f205f6101000a81548160ff02191690836002811115611d8f57611d8e612cd0565b5b0217905550611d9e848261207b565b5f82511115611db257611db18183612098565b5b826002811115611dc557611dc4612cd0565b5b818573ffffffffffffffffffffffffffffffffffffffff167f6e79522d33e3590933a0f11623ebc984abab3d341dd3e9b88e4e2503b15d9ab660405160405180910390a450505050565b50505050565b50505050565b5f611e3b8473ffffffffffffffffffffffffffffffffffffffff1661213a565b15611f90578373ffffffffffffffffffffffffffffffffffffffff1663150b7a02611e646111f3565b8786866040518563ffffffff1660e01b8152600401611e86949392919061383d565b6020604051808303815f875af1925050508015611ec157506040513d601f19601f82011682018060405250810190611ebe919061389b565b60015b611f40573d805f8114611eef576040519150601f19603f3d011682016040523d82523d5f602084013e611ef4565b606091505b505f815103611f38576040517f08c379a0000000000000000000000000000000000000000000000000000000008152600401611f2f906137cd565b60405180910390fd5b805181602001fd5b63150b7a0260e01b7bffffffffffffffffffffffffffffffffffffffffffffffffffffffff1916817bffffffffffffffffffffffffffffffffffffffffffffffffffffffff191614915050611f95565b600190505b949350505050565b60605f6001611fab8461215c565b0190505f8167ffffffffffffffff811115611fc957611fc8612aee565b5b6040519080825280601f01601f191660200182016040528015611ffb5781602001600182028036833780820191505090505b5090505f82602001820190505b60011561205c578080600190039150507f3031323334353637383961626364656600000000000000000000000000000000600a86061a8153600a8581612051576120506138c6565b5b0494505f8503612008575b819350505050919050565b6001815f015f828254019250508190555050565b612094828260405180602001604052805f8152506122ad565b5050565b6120a182611c7d565b6120e0576040517f08c379a00000000000000000000000000000000000000000000000000000000081526004016120d790613963565b60405180910390fd5b8060065f8481526020019081526020015f2090816120fe91906131d3565b507ff8e1a15aba9398e019f0b49df1a4fde98ee17ae345cb5f6b5e2c27f5033e8ce78260405161212e9190612841565b60405180910390a15050565b5f5f8273ffffffffffffffffffffffffffffffffffffffff163b119050919050565b5f5f5f90507a184f03e93ff9f4daa797ed6e38ed64bf6a1f01000000000000000083106121b8577a184f03e93ff9f4daa797ed6e38ed64bf6a1f01000000000000000083816121ae576121ad6138c6565b5b0492506040810190505b6d04ee2d6d415b85acef810000000083106121f5576d04ee2d6d415b85acef810000000083816121eb576121ea6138c6565b5b0492506020810190505b662386f26fc10000831061222457662386f26fc10000838161221a576122196138c6565b5b0492506010810190505b6305f5e100831061224d576305f5e1008381612243576122426138c6565b5b0492506008810190505b6127108310612272576127108381612268576122676138c6565b5b0492506004810190505b60648310612295576064838161228b5761228a6138c6565b5b0492506002810190505b600a83106122a4576001810190505b80915050919050565b6122b78383612307565b6122c35f848484611e1b565b612302576040517f08c379a00000000000000000000000000000000000000000000000000000000081526004016122f9906137cd565b60405180910390fd5b505050565b5f73ffffffffffffffffffffffffffffffffffffffff168273ffffffffffffffffffffffffffffffffffffffff1603612375576040517f08c379a000000000000000000000000000000000000000000000000000000000815260040161236c906139cb565b60405180910390fd5b61237e81611c7d565b156123be576040517f08c379a00000000000000000000000000000000000000000000000000000000081526004016123b590613a33565b60405180910390fd5b6123cb5f83836001611e0f565b6123d481611c7d565b15612414576040517f08c379a000000000000000000000000000000000000000000000000000000000815260040161240b90613a33565b60405180910390fd5b600160035f8473ffffffffffffffffffffffffffffffffffffffff1673ffffffffffffffffffffffffffffffffffffffff1681526020019081526020015f205f82825401925050819055508160025f8381526020019081526020015f205f6101000a81548173ffffffffffffffffffffffffffffffffffffffff021916908373ffffffffffffffffffffffffffffffffffffffff160217905550808273ffffffffffffffffffffffffffffffffffffffff165f73ffffffffffffffffffffffffffffffffffffffff167fddf252ad1be2c89b69c2b068fc378daa952ba7f163c4a11628f55a4df523b3ef60405160405180910390a46125165f83836001611e15565b5050565b5f604051905090565b5f5ffd5b5f5ffd5b5f7fffffffff0000000000000000000000000000000000000000000000000000000082169050919050565b61255f8161252b565b8114612569575f5ffd5b50565b5f8135905061257a81612556565b92915050565b5f6020828403121561259557612594612523565b5b5f6125a28482850161256c565b91505092915050565b5f8115159050919050565b6125bf816125ab565b82525050565b5f6020820190506125d85f8301846125b6565b92915050565b5f81519050919050565b5f82825260208201905092915050565b8281835e5f83830152505050565b5f601f19601f8301169050919050565b5f612620826125de565b61262a81856125e8565b935061263a8185602086016125f8565b61264381612606565b840191505092915050565b5f6020820190508181035f8301526126668184612616565b905092915050565b5f819050919050565b6126808161266e565b811461268a575f5ffd5b50565b5f8135905061269b81612677565b92915050565b5f602082840312156126b6576126b5612523565b5b5f6126c38482850161268d565b91505092915050565b5f73ffffffffffffffffffffffffffffffffffffffff82169050919050565b5f6126f5826126cc565b9050919050565b612705816126eb565b82525050565b5f60208201905061271e5f8301846126fc565b92915050565b61272d816126eb565b8114612737575f5ffd5b50565b5f8135905061274881612724565b92915050565b5f5f6040838503121561276457612763612523565b5b5f6127718582860161273a565b92505060206127828582860161268d565b9150509250929050565b60038110612798575f5ffd5b50565b5f813590506127a98161278c565b92915050565b5f602082840312156127c4576127c3612523565b5b5f6127d18482850161279b565b91505092915050565b6127e38161266e565b82525050565b5f60a0820190506127fc5f8301886125b6565b61280960208301876127da565b61281660408301866127da565b61282360608301856127da565b81810360808301526128358184612616565b90509695505050505050565b5f6020820190506128545f8301846127da565b92915050565b5f5f5f5f6080858703121561287257612871612523565b5b5f61287f8782880161273a565b94505060206128908782880161268d565b93505060406128a18782880161268d565b92505060606128b28782880161268d565b91505092959194509250565b5f5f5f606084860312156128d5576128d4612523565b5b5f6128e28682870161273a565b93505060206128f38682870161273a565b92505060406129048682870161268d565b9150509250925092565b612917816125ab565b8114612921575f5ffd5b50565b5f813590506129328161290e565b92915050565b5f5ffd5b5f5ffd5b5f5ffd5b5f5f83601f84011261295957612958612938565b5b8235905067ffffffffffffffff8111156129765761297561293c565b5b60208301915083600182028301111561299257612991612940565b5b9250929050565b5f5f5f5f5f5f5f60c0888a0312156129b4576129b3612523565b5b5f6129c18a828b0161279b565b97505060206129d28a828b01612924565b96505060406129e38a828b0161268d565b95505060606129f48a828b0161268d565b9450506080612a058a828b0161268d565b93505060a088013567ffffffffffffffff811115612a2657612a25612527565b5b612a328a828b01612944565b925092505092959891949750929550565b5f5f60408385031215612a5957612a58612523565b5b5f612a668582860161273a565b9250506020612a778582860161279b565b9150509250929050565b5f60208284031215612a9657612a95612523565b5b5f612aa38482850161273a565b91505092915050565b5f5f60408385031215612ac257612ac1612523565b5b5f612acf8582860161273a565b9250506020612ae085828601612924565b9150509250929050565b5f5ffd5b7f4e487b71000000000000000000000000000000000000000000000000000000005f52604160045260245ffd5b612b2482612606565b810181811067ffffffffffffffff82111715612b4357612b42612aee565b5b80604052505050565b5f612b5561251a565b9050612b618282612b1b565b919050565b5f67ffffffffffffffff821115612b8057612b7f612aee565b5b612b8982612606565b9050602081019050919050565b828183375f83830152505050565b5f612bb6612bb184612b66565b612b4c565b905082815260208101848484011115612bd257612bd1612aea565b5b612bdd848285612b96565b509392505050565b5f82601f830112612bf957612bf8612938565b5b8135612c09848260208601612ba4565b91505092915050565b5f5f5f5f60808587031215612c2a57612c29612523565b5b5f612c378782880161273a565b9450506020612c488782880161273a565b9350506040612c598782880161268d565b925050606085013567ffffffffffffffff811115612c7a57612c79612527565b5b612c8687828801612be5565b91505092959194509250565b5f5f60408385031215612ca857612ca7612523565b5b5f612cb58582860161273a565b9250506020612cc68582860161273a565b9150509250929050565b7f4e487b71000000000000000000000000000000000000000000000000000000005f52602160045260245ffd5b60038110612d0e57612d0d612cd0565b5b50565b5f819050612d1e82612cfd565b919050565b5f612d2d82612d11565b9050919050565b612d3d81612d23565b82525050565b5f602082019050612d565f830184612d34565b92915050565b7f4e487b71000000000000000000000000000000000000000000000000000000005f52602260045260245ffd5b5f6002820490506001821680612da057607f821691505b602082108103612db357612db2612d5c565b5b50919050565b7f4552433732313a20617070726f76616c20746f2063757272656e74206f776e655f8201527f7200000000000000000000000000000000000000000000000000000000000000602082015250565b5f612e136021836125e8565b9150612e1e82612db9565b604082019050919050565b5f6020820190508181035f830152612e4081612e07565b9050919050565b7f4552433732313a20617070726f76652063616c6c6572206973206e6f7420746f5f8201527f6b656e206f776e6572206f7220617070726f76656420666f7220616c6c000000602082015250565b5f612ea1603d836125e8565b9150612eac82612e47565b604082019050919050565b5f6020820190508181035f830152612ece81612e95565b9050919050565b7f51756573744261646765733a206e6f74207175657374206d616e6167657200005f82015250565b5f612f09601e836125e8565b9150612f1482612ed5565b602082019050919050565b5f6020820190508181035f830152612f3681612efd565b9050919050565b7f51756573744261646765733a2075736572207a65726f000000000000000000005f82015250565b5f612f716016836125e8565b9150612f7c82612f3d565b602082019050919050565b5f6020820190508181035f830152612f9e81612f65565b9050919050565b7f4552433732313a2063616c6c6572206973206e6f7420746f6b656e206f776e655f8201527f72206f7220617070726f76656400000000000000000000000000000000000000602082015250565b5f612fff602d836125e8565b915061300a82612fa5565b604082019050919050565b5f6020820190508181035f83015261302c81612ff3565b9050919050565b5f819050815f5260205f209050919050565b5f6020601f8301049050919050565b5f82821b905092915050565b5f6008830261308f7fffffffffffffffffffffffffffffffffffffffffffffffffffffffffffffffff82613054565b6130998683613054565b95508019841693508086168417925050509392505050565b5f819050919050565b5f6130d46130cf6130ca8461266e565b6130b1565b61266e565b9050919050565b5f819050919050565b6130ed836130ba565b6131016130f9826130db565b848454613060565b825550505050565b5f5f905090565b613118613109565b6131238184846130e4565b505050565b5b818110156131465761313b5f82613110565b600181019050613129565b5050565b601f82111561318b5761315c81613033565b61316584613045565b81016020851015613174578190505b61318861318085613045565b830182613128565b50505b505050565b5f82821c905092915050565b5f6131ab5f1984600802613190565b1980831691505092915050565b5f6131c3838361319c565b9150826002028217905092915050565b6131dc826125de565b67ffffffffffffffff8111156131f5576131f4612aee565b5b6131ff8254612d89565b61320a82828561314a565b5f60209050601f83116001811461323b575f8415613229578287015190505b61323385826131b8565b86555061329a565b601f19841661324986613033565b5f5b828110156132705784890151825560018201915060208501945060208101905061324b565b8683101561328d5784890151613289601f89168261319c565b8355505b6001600288020188555050505b505050505050565b5f6132ad83856125e8565b93506132ba838584612b96565b6132c383612606565b840190509392505050565b5f60a0820190506132e15f8301896125b6565b6132ee60208301886127da565b6132fb60408301876127da565b61330860608301866127da565b818103608083015261331b8184866132a2565b9050979650505050505050565b7f51756573744261646765733a206d616e61676572207a65726f000000000000005f82015250565b5f61335c6019836125e8565b915061336782613328565b602082019050919050565b5f6020820190508181035f83015261338981613350565b9050919050565b7f4552433732313a20696e76616c696420746f6b656e20494400000000000000005f82015250565b5f6133c46018836125e8565b91506133cf82613390565b602082019050919050565b5f6020820190508181035f8301526133f1816133b8565b9050919050565b7f4552433732313a2061646472657373207a65726f206973206e6f7420612076615f8201527f6c6964206f776e65720000000000000000000000000000000000000000000000602082015250565b5f6134526029836125e8565b915061345d826133f8565b604082019050919050565b5f6020820190508181035f83015261347f81613446565b9050919050565b5f81905092915050565b5f61349a826125de565b6134a48185613486565b93506134b48185602086016125f8565b80840191505092915050565b5f6134cb8285613490565b91506134d78284613490565b91508190509392505050565b7f4f776e61626c653a206e6577206f776e657220697320746865207a65726f20615f8201527f6464726573730000000000000000000000000000000000000000000000000000602082015250565b5f61353d6026836125e8565b9150613548826134e3565b604082019050919050565b5f6020820190508181035f83015261356a81613531565b9050919050565b7f4552433732313a207472616e736665722066726f6d20696e636f7272656374205f8201527f6f776e6572000000000000000000000000000000000000000000000000000000602082015250565b5f6135cb6025836125e8565b91506135d682613571565b604082019050919050565b5f6020820190508181035f8301526135f8816135bf565b9050919050565b7f4552433732313a207472616e7366657220746f20746865207a65726f206164645f8201527f7265737300000000000000000000000000000000000000000000000000000000602082015250565b5f6136596024836125e8565b9150613664826135ff565b604082019050919050565b5f6020820190508181035f8301526136868161364d565b9050919050565b7f4f776e61626c653a2063616c6c6572206973206e6f7420746865206f776e65725f82015250565b5f6136c16020836125e8565b91506136cc8261368d565b602082019050919050565b5f6020820190508181035f8301526136ee816136b5565b9050919050565b7f4552433732313a20617070726f766520746f2063616c6c6572000000000000005f82015250565b5f6137296019836125e8565b9150613734826136f5565b602082019050919050565b5f6020820190508181035f8301526137568161371d565b9050919050565b7f4552433732313a207472616e7366657220746f206e6f6e2045524337323152655f8201527f63656976657220696d706c656d656e7465720000000000000000000000000000602082015250565b5f6137b76032836125e8565b91506137c28261375d565b604082019050919050565b5f6020820190508181035f8301526137e4816137ab565b9050919050565b5f81519050919050565b5f82825260208201905092915050565b5f61380f826137eb565b61381981856137f5565b93506138298185602086016125f8565b61383281612606565b840191505092915050565b5f6080820190506138505f8301876126fc565b61385d60208301866126fc565b61386a60408301856127da565b818103606083015261387c8184613805565b905095945050505050565b5f8151905061389581612556565b92915050565b5f602082840312156138b0576138af612523565b5b5f6138bd84828501613887565b91505092915050565b7f4e487b71000000000000000000000000000000000000000000000000000000005f52601260045260245ffd5b7f45524337323155524953746f726167653a2055524920736574206f66206e6f6e5f8201527f6578697374656e7420746f6b656e000000000000000000000000000000000000602082015250565b5f61394d602e836125e8565b9150613958826138f3565b604082019050919050565b5f6020820190508181035f83015261397a81613941565b9050919050565b7f4552433732313a206d696e7420746f20746865207a65726f20616464726573735f82015250565b5f6139b56020836125e8565b91506139c082613981565b602082019050919050565b5f6020820190508181035f8301526139e2816139a9565b9050919050565b7f4552433732313a20746f6b656e20616c7265616479206d696e746564000000005f82015250565b5f613a1d601c836125e8565b9150613a28826139e9565b602082019050919050565b5f6020820190508181035f830152613a4a81613a11565b905091905056fea2646970667358221220158e79b577568b34db6af918d335180a5c263565573391c61c94679806eca28864736f6c634300081e0033","linkReferences":{}},"methodIdentifiers":{"approve(address,uint256)":"095ea7b3","awardBadges(address,uint256,uint256,uint256)":"1aa3fd20","badgeRules(uint8)":"0dfc5f83","badgeTypeOfTokenId(uint256)":"fe43ef1b","balanceOf(address)":"70a08231","getApproved(uint256)":"081812fc","hasBadge(address,uint8)":"3af0c688","isApprovedForAll(address,address)":"e985e9c5","name()":"06fdde03","owner()":"8da5cb5b","ownerOf(uint256)":"6352211e","questManager()":"dc1627eb","renounceOwnership()":"715018a6","safeTransferFrom(address,address,uint256)":"42842e0e","safeTransferFrom(address,address,uint256,bytes)":"b88d4fde","setApprovalForAll(address,bool)":"a22cb465","setBadgeRule(uint8,bool,uint256,uint256,uint256,string)":"3168e65b","setQuestManager(address)":"625cdead","supportsInterface(bytes4)":"01ffc9a7","symbol()":"95d89b41","tokenURI(uint256)":"c87b56dd","totalSupply()":"18160ddd","transferFrom(address,address,uint256)":"23b872dd","transferOwnership(address)":"f2fde38b"},"id":34}